:100000006BC0000099C00000B1C0000080C00000BB
:100010007EC000007CC000007AC0000078C00000F4
:1000200076C0000074C00000C4C4000070C00000AE
:100030006EC000006CC000006AC0000068C0000014
:1000400066C0000064C0000062C0000060C0000024
:100050005EC000005CC000005AC0000058C0000034
:1000600056C0000054C0000052C0000050C0000044
:100070004EC000004CC000004AC0000048C0000054
:1000800046C0000044C0000042C0000040C0000064
:100090003EC000003CC000003AC0000038C0000074
:1000A00036C0000034C0000032C000000902190050
:1000B00001010080190904000001FF6A0000070522
:1000C000810308000812010001FF0000089A0B6A72
:1000D000010001000000010011241FBECFEFDAE093
:1000E000DEBFCDBF11E0A0E0B1E0E2E6FEE002C07D
:1000F00005900D92A830B107D9F721E0A8E0B1E052
:1001000001C01D92AA32B207E1F744D2A8C678CF47
:1001100095B1282F217020959160922395B99BB1BC
:10012000282F20722095906292239BB998B19F77D7
:100130008078892B88B908951F920F920FB60F927D
:1001400011248F93EF93FF93E0911101F09112012D
:10015000E370FF27E35FFE4F81E08083FF91EF9123
:100160008F910F900FBE0F901F9018951F920F92B6
:100170000FB60F9211248F939F93EF93FF93E0910B
:100180001101F09112013196E370FF27E35FFE4FFA
:1001900010828091110190911201019690931201A9
:1001A00080931101FF91EF919F918F910F900FBE5E
:1001B0000F901F9018951092CD0082E28093CC0092
:1001C000E8ECF0E080818260808380E18093C90068
:1001D00086E08093CA0008958091C80087FF55C0CB
:1001E0009091CE0080910C01863028F4E82FF0E049
:1001F000E95EFE4F90838F5F80930C019F3D09F075
:1002000044C0863009F03FC08091110190911201E5
:1002100001969093120180931101809117018E3DF8
:1002200091F58091180190E0909303018093020171
:100230008091190190E090930101809300018091D9
:100240001A01282F30E030930B0120930A0190917E
:100250001B01892F90E09093090180930801820F80
:10026000931F892B11F081E853DF20910A0130910F
:100270000B018091080190910901820F931F892B36
:1002800011F480E245DF10920C01089584B7877F56
:1002900084BF0FB6F894A895809160008861809320
:1002A0006000109260000FBE90E080E80FB6F894F6
:1002B00080936100909361000FBE209A289A559A0E
:1002C0005D9A3F9A479858D376DFE89AE9E6F0E0DE
:1002D00080818260808380818E7F8083E99A8081A3
:1002E0008C60808384B18F7984B985B1806685B94B
:1002F000089580EA0DDF81E080930601089581E092
:1003000007CF42E061EC81E070D29091E20094600E
:100310009093E200811102C081E801C080E2F8CE32
:100320008091130190911401009729F00197909307
:10033000140180931301089523E0FC0111922A9582
:10034000E9F721E0FC0121830895CF93DF9300D0EA
:100350001F92CDB7DEB780912301833029F130F4AD
:10036000813051F0823009F45BC073C08A3009F4E7
:100370003EC08B3031F16DC080912201813A09F08D
:1003800068C0CE010196D8DF8091E800877F809316
:10039000E80063E070E0CE01019668D18091E8004A
:1003A0008B778093E80055C080912201813A09F053
:1003B00050C08091E800877F8093E800809106011B
:1003C00040C080912201813209F043C08091E80051
:1003D000877F8093E8003ED281E020912401309114
:1003E0002501232B09F480E08093060132C080911F
:1003F0002201813271F58091E800877F8093E800C7
:1004000029D28091240190912501882736E0969584
:1004100087953A95E1F7909316018093150119C0DD
:1004200080912201813AA9F48091E800877F80932E
:10043000E800809115019091160196958795969503
:1004400087958093F1008091E8008E778093E80093
:1004500001D20F900F900F90DF91CF910895CF931D
:10046000DF9300D000D000D0CDB7DEB7FE013196CB
:1004700086E0DF011D928A95E9F7409102015091D3
:10048000030120910001309101014115510589F0CE
:100490002115310571F061EE649FC001659F900DDB
:1004A000112464E670E0C7D46C577F4F215F3F4F43
:1004B00004C025E030E061E070E04091080142FFB7
:1004C00003C08FE79FEF02C08FEF9FEF43FD8F7D4B
:1004D00040FD8F7E41FD8F7B40910A0140FD01C0B0
:1004E0001D9B9F7D41FD01C01E9B8D7F45FD9F7B18
:1004F00044FD9F7742FD877F43FD8B7F4091110133
:1005000050911201A0910401B09105014A175B07B7
:1005100031F0509305014093040141E001C040E0F7
:1005200089839A836B837C832D833E83809115011D
:1005300090911601009759F0209113013091140108
:10054000232B29F4909314018093130141E081E05F
:100550008093E9008091E80085FF0DC0442359F0A5
:1005600040E050E066E070E0CF0136D08091E800D6
:100570008E778093E80026960FB6F894DEBF0FBE04
:10058000CDBFDF91CF91089580912101843009F48E
:1005900066CF08957BDE81E0BBDD78941DDEF4DF5D
:1005A00030D4FCCF292F30E02130310541F022300A
:1005B000310551F489E190E02CEA30E009C082E194
:1005C00090E025EC30E004C080E090E020E030E0F6
:1005D000FA01318320830895CF92DF92EF92FF9248
:1005E0000F931F93CF93DF93EC018B017A0151D1CD
:1005F000811133C0E114F10439F0F7018081918158
:10060000081B190BC80FD91FC12CD12C01151105BE
:1006100019F18091E80085FD16C08091E8008E7781
:100620008093E800EED3E114F10449F0F7018081F2
:100630009181C80ED91ED182C08285E00EC029D119
:10064000882321F30AC089918093F1000150110998
:10065000FFEFCF1ADF0ADACF80E0DF91CF911F9151
:100660000F91FF90EF90DF90CF9008952091280197
:10067000309129012617370748F06115710539F4C3
:100680002091E8002E772093E80001C0B901FC0119
:1006900020E06115710579F1809121018823F1F144
:1006A0008530F1F18091E80083FD3CC08091E80045
:1006B00082FD2EC08091E80080FFEBCF2091F300F7
:1006C0008091F20090E0922B6115710551F0883015
:1006D000910538F421912093F10061507109019640
:1006E000F3CF21E0089709F020E08091E8008E77B1
:1006F0008093E800CECF2111CFCF0AC08091210195
:10070000882361F0853061F08091E80083FD0AC0A4
:100710008091E80082FFF2CF80E0089582E00895A2
:1007200083E0089581E00895209128013091290106
:100730002617370748F06115710539F42091E80054
:100740002E772093E80001C0B901FC0120E061157B
:10075000710591F180912101882309F440C0853011
:1007600009F43FC08091E80083FD3DC08091E8001E
:1007700082FD2FC08091E80080FFE9CF2091F30037
:100780008091F20090E0922B6115710559F088304C
:10079000910540F424912093F10031966150710944
:1007A0000196F2CF21E0089709F020E08091E8005F
:1007B0008E778093E800CBCF2111CCCF0AC08091F7
:1007C0002101882361F0853061F08091E80083FD8C
:1007D0000AC08091E80082FFF2CF80E0089582E0B5
:1007E000089583E0089581E00895982F973068F583
:1007F0009093E900981739F07091EC002091ED008A
:100800005091F00003C0242F762F50E021FD02C04C
:100810009F5FECCF3091EB003E7F3093EB00309147
:10082000ED003D7F3093ED003091EB00316030936F
:10083000EB007093EC002093ED005093F0002091BA
:10084000EE0027FDE5CF80E008958F708093E900EA
:1008500081E008958091220187FF11C08091E80016
:1008600082FD05C0809121018111F8CF11C08091D6
:10087000E8008B770BC080912101882349F080919B
:10088000E80080FFF8CF8091E8008E778093E80041
:1008900008952091E4003091E50095E64091EC0048
:1008A000842F817040FF23C08091E80080FD1DC02F
:1008B00080912101882399F0853099F08091EB0097
:1008C00085FD11C04091E4005091E50024173507E3
:1008D00029F3915011F09A01E1CF84E0089582E06C
:1008E000089583E0089581E0089580E0089540919F
:1008F000E80042FFDDCF08950F931F93CF93DF935E
:100900004BD052D0C8EDD0E088818F778883888122
:100910008068888388818F7D888319BC109221012B
:1009200010921D0110921F0110921E0100EE10E0A6
:10093000F80180818460808388818160888342E0BF
:1009400060E080E052DFE1EEF0E080818E7F808326
:10095000E2EEF0E080818160808380818860808326
:10096000F80180818E7F8083888180618883DF9118
:10097000CF911F910F910895E8EDF0E080818F7E77
:100980008083E7EDF0E080818160808384E082BF36
:1009900081E080932001B0CFE8EDF0E080818E7F90
:1009A00080831092E20008951092DA001092E10024
:1009B00008951F920F920FB60F9211242F933F9319
:1009C0004F935F936F937F938F939F93AF93BF9357
:1009D000EF93FF938091E10082FF0AC08091E200D3
:1009E00082FF06C08091E1008B7F8093E10098DC5C
:1009F0008091DA0080FF1DC08091D80080FF19C06F
:100A00008091DA008E7F8093DA008091D90080FF98
:100A10000CC080E189BD82E189BD09B400FEFDCF33
:100A200081E08093210165DC04C019BC1092210192
:100A300066DC8091E10080FF18C08091E20080FFB9
:100A400014C08091E2008E7F8093E2008091E200EA
:100A500080618093E2008091D80080628093D8000A
:100A600019BC85E080932101CBD18091E10084FF06
:100A70002FC08091E20084FF2BC080E189BD82E11C
:100A800089BD09B400FEFDCF8091D8008F7D809391
:100A9000D8008091E1008F7E8093E1008091E20098
:100AA0008F7E8093E2008091E20081608093E2007B
:100AB00080911D01882311F084E007C08091E3003C
:100AC00087FD02C081E001C083E08093210198D1BD
:100AD0008091E10083FF22C08091E20083FF1EC06D
:100AE0008091E100877F8093E10082E08093210183
:100AF00010921D018091E1008E7F8093E100809132
:100B0000E2008E7F8093E2008091E200806180931A
:100B1000E20042E060E080E068DE72D1FF91EF9198
:100B2000BF91AF919F918F917F916F915F914F9105
:100B30003F912F910F900FBE0F901F9018951F930C
:100B4000CF93DF93CDB7DEB7AA970FB6F894DEBF89
:100B50000FBECDBFE2E2F1E08091F100819321E090
:100B6000EA32F207C9F7F1DB8091E80083FF30C178
:100B70008091220190912301953009F483C030F4D3
:100B80009130A9F168F0933091F122C1983009F4C5
:100B9000EFC0993009F4FBC0963009F019C194C038
:100BA000803821F0823809F013C108C080911E01FD
:100BB00090911F01992389F082600FC080912601D6
:100BC0008F70873008F004C18093E9008091EB00BA
:100BD00085FB882780F91092E9009091E800977FC3
:100BE0009093E8008093F1001092F100CCC0282F80
:100BF0002D7F09F0EDC0882319F0823061F0E8C044
:100C000080912401813009F0E3C0933009F080E045
:100C100080931F012EC08091240181112AC08091F0
:100C200026018F702FEF280F263008F0D1C0809357
:100C3000E9002091EB0020FF1CC0933021F480914B
:100C4000EB00806214C09091EB0090619093EB00F8
:100C500021E030E0A90102C0440F551F8A95E2F758
:100C60004093EA001092EA008091EB008860809344
:100C7000EB001092E9008091E800877F8093E80004
:100C8000E9DDA6C08111A4C0109124011F778091D5
:100C9000E3008078812B8093E3008091E800877FD8
:100CA0008093E800D7DD8091E80080FFFCCF809141
:100CB000E30080688093E300111102C082E001C06C
:100CC00083E08093210184C08058823008F080C086
:100CD00080912401909125018C3D53E0950771F599
:100CE00083E08A838AE289834FB7F894DE01139602
:100CF00020E03EE051E2E32FF0E050935700E49112
:100D000020FF03C0E295EF703F5FEF708E2F90E001
:100D1000EA3010F0C79601C0C0968D939D932F5F67
:100D2000243149F74FBF8091E800877F8093E80026
:100D30006AE270E0CE01019699DC14C06091260150
:100D400070912701AE014F5F5F4F2CDCBC01892BF6
:100D500009F43EC09091E800977F9093E800898164
:100D60009A81E2DC8091E8008B778093E80030C0C4
:100D7000803871F58091E800877F8093E80080914A
:100D80001D018093F1008091E8008E7777CF81116B
:100D90001FC0809124019091250199270297C4F4E6
:100DA0008091E800877F8093E80080912401809300
:100DB0001D0150DD80911D01811106C08091E3006D
:100DC00087FD02C081E001C084E08093210199DAAF
:100DD0008091E80083FF0AC08091E800877F8093BC
:100DE000E8008091EB0080628093EB00AA960FB63A
:100DF000F894DEBF0FBECDBFDF91CF911F91089554
:100E00000895CF9380912101882399F0C091E90042
:100E1000CF709091EC00892F817090FD80E8C82BF5
:100E20001092E9008091E80083FD89DECF70C093C5
:100E3000E900CF910895AA1BBB1B51E107C0AA1F6F
:100E4000BB1FA617B70710F0A61BB70B881F991F6B
:100E50005A95A9F780959095BC01CD010895F89415
:020E6000FFCFC2
:080E6200FF3FFF3FFFFF01000D
:00000001FF
