:100000000C9462000C948A000C948A000C948A0070
:100010000C948A000C948A000C948A000C948A0038
:100020000C948A000C948A000C948A000C948A0028
:100030000C948A000C948A000C948A000C948A0018
:100040000C9426020C94C8020C9496020C94700234
:100050000C948A000C948A000C948A000C948A00F8
:100060000C948A000C948A000000000024002700F1
:100070002A000000000023002600290000000000E4
:10008000250028002B0004040404040404040202D4
:100090000202020203030303030301020408102007
:1000A0004080010204081020010204081020000012
:1000B0000008000201000003040700000000000027
:1000C0000000DF0411241FBECFEFD8E0DEBFCDBF9C
:1000D00011E0A0E0B1E0E2E5FEE002C005900D9283
:1000E000AC32B107D9F721E0ACE2B1E001C01D921A
:1000F000A93DB207E1F710E0C2E6D0E004C02197C5
:10010000FE010E941C07C136D107C9F70E942D03CA
:100110000C9427070C940000CF92DF92EF92FF928D
:100120000F931F93CF93DF936C017A018B01C0E093
:10013000D0E0CE15DF0589F0D8016D918D01D60193
:10014000ED91FC910190F081E02DC6010995892B7C
:1001500011F47E0102C02196ECCFC701DF91CF914F
:100160001F910F91FF90EF90DF90CF900895089529
:1001700080E090E00895FC01538D448D252F30E000
:10018000842F90E0821B930B541710F0CF960895A4
:1001900001970895FC01918D828D981761F0828DF1
:1001A000DF01A80FB11D5D968C91928D9F5F9F73AB
:1001B000928F90E008958FEF9FEF0895FC01918D4D
:1001C000828D981731F0828DE80FF11D858D90E0BA
:1001D00008958FEF9FEF0895FC01918D228D892F57
:1001E00090E0805C9F4F821B91098F73992708953F
:1001F0008CE291E00E94EC0021E0892B09F420E0E0
:10020000822F0895FC01848DDF01A80FB11DA35A30
:10021000BF4F2C91848D90E001968F739927848F26
:10022000A689B7892C93A089B1898C9180648C931D
:10023000938D848D981306C00288F389E02D808108
:100240008F7D80830895EF92FF920F931F93CF933A
:10025000DF93EC0181E0888F9B8D8C8D981305C016
:10026000E889F989808185FD24C0F62E0B8D10E088
:100270000F5F1F4F0F731127E02E8C8DE8120CC0FB
:100280000FB607FCFACFE889F989808185FFF5CFA1
:10029000CE010E940201F1CF8B8DFE01E80FF11D0E
:1002A000E35AFF4FF0820B8FEA89FB8980818062DD
:1002B00007C0EE89FF896083E889F98980818064BD
:1002C000808381E090E0DF91CF911F910F91FF90AB
:1002D000EF900895CF93DF93EC01888D8823C9F0C8
:1002E000EA89FB89808185FD05C0A889B9898C913F
:1002F00086FD0FC00FB607FCF5CF808185FFF2CFDA
:10030000A889B9898C9185FFEDCFCE010E940201A9
:10031000E7CFDF91CF91089580E090E0892B29F01D
:100320000E94F80081110C9400000895833081F040
:1003300028F4813099F08230A1F008958730A9F037
:100340008830B9F08430D1F4809180008F7D03C073
:10035000809180008F7780938000089584B58F7797
:1003600002C084B58F7D84BD08958091B0008F77E1
:1003700003C08091B0008F7D8093B0000895CF932B
:10038000DF93282F30E0F901E255FF4F8491F90106
:10039000E656FF4FD491F901EA57FF4FC491CC23A1
:1003A00091F081110E949601EC2FF0E0EE0FFF1FFB
:1003B000EE58FF4FA591B491EC91ED2381E090E0D0
:1003C00021F480E002C080E090E0DF91CF910895B9
:1003D000CF93DF9390E0FC01E656FF4F2491FC01A0
:1003E000EA57FF4F8491882361F190E0880F991FAD
:1003F000FC01E859FF4FC591D491FC01E458FF4F2F
:10040000A591B491611109C09FB7F8948881209596
:1004100082238883EC912E230BC0623061F49FB756
:10042000F8943881822F809583238883EC912E2B3A
:100430002C939FBF06C08FB7F894E8812E2B28839A
:100440008FBFDF91CF9108950E9422071F920F92D4
:100450000FB60F9211242F933F938F939F93AF93D7
:10046000BF938091D5019091D601A091D701B09111
:10047000D8013091D40123E0230F2D3720F40196C9
:10048000A11DB11D05C026E8230F0296A11DB11DB7
:100490002093D4018093D5019093D601A093D701E6
:1004A000B093D8018091D0019091D101A091D20157
:1004B000B091D3010196A11DB11D8093D0019093FD
:1004C000D101A093D201B093D301BF91AF919F917D
:1004D0008F913F912F910F900FBE0F901F90189505
:1004E0001F920F920FB60F9211242F933F934F93A9
:1004F0005F936F937F938F939F93AF93BF93EF938C
:10050000FF938CE291E00E940201FF91EF91BF9175
:10051000AF919F918F917F916F915F914F913F919B
:100520002F910F900FBE0F901F9018951F920F9252
:100530000FB60F9211242F938F939F93EF93FF93F6
:10054000E0913C01F0913D018081E0914201F09108
:10055000430182FD12C09081809145018F5F8F73AE
:1005600020914601821751F0E0914501F0E0E45DF1
:10057000FE4F958F8093450101C08081FF91EF91DF
:100580009F918F912F910F900FBE0F901F901895F4
:100590001F920F920FB60F9211242F933F934F93F8
:1005A0008F939F93EF93FF933EB58091CF01883057
:1005B00008F045C090E0FC01EF5EFE4F2081322341
:1005C000FC01E75FFE4F41E02081321340E02091C3
:1005D0000801242320930801222309F428C0FC01E8
:1005E000E050FF4F80818EBD579A00000000000050
:1005F00000000000000000000000000000000000FB
:1006000000000000000000000000000000000000EA
:1006100000000000000000000000000000000000DA
:1006200000000000000000000000579802C08FEF9B
:100630008EBD8091CF018F5F8093CF0102C08FEF7D
:100640008EBDFF91EF919F918F914F913F912F918F
:100650000F900FBE0F901F901895789484B582600C
:1006600084BD84B5816084BD85B5826085BD85B556
:10067000816085BD80916E00816080936E001092D4
:10068000810080918100826080938100809181004F
:1006900081608093810080918000816080938000E0
:1006A0008091B10084608093B1008091B00081603E
:1006B0008093B00080917A00846080937A0080916A
:1006C0007A00826080937A0080917A0081608093C2
:1006D0007A0080917A00806880937A001092C1003D
:1006E00060E087E00E94E801E5EBF0E08491E1EA58
:1006F000F0E0D491EDE8F0E0C491CC2399F08111C1
:100700000E949601EC2FF0E0EE0FFF1FE458FF4F20
:10071000A591B4918FB7F8949C91ED2FE095E923C2
:10072000EC938FBF61E08CE00E94E8018CB58C6691
:100730008CBD8CB580688CBD62E085E00E94E801CC
:1007400062E084E00E94E80162E083E00E94E80148
:10075000E0913C01F0913D0182E08083E0913C0119
:10076000F0913D011082E0913801F0913901108241
:10077000E0913A01F0913B0180E1808310924401C5
:10078000E0914001F091410186E08083E0913E01DB
:10079000F0913F01808180618083E0913E01F09182
:1007A0003F01808188608083E0913E01F0913F01AC
:1007B000808180688083E0913E01F0913F018081DB
:1007C0008F7D8083BB24BA9487EFA82E9FEB992E50
:1007D000D1E01A9BF1C08091CF01882321F01092C3
:1007E000CF01D093080185E00E94BF019093CE0114
:1007F0008093CD0184E00E94BF019093CC0180934F
:10080000CB0183E00E94BF019093CA018093C9018C
:100810008CE291E00E94EC0006970CF4CDC08CE2D3
:1008200091E00E94CA003C018CE291E00E94CA0063
:100830008C018CE291E00E94CA006C018CE291E094
:100840000E94CA007C018CE291E00E94CA008CE206
:1008500091E00E94CA002EED6216710419F48F3DDA
:10086000910599F000E010E00F3D110509F4A4C0D6
:100870008CE291E00E94EC0018161906ACF78CE2AD
:1008800091E00E94CA008C01EFCF6E2D8CE291E0C6
:100890000E942301C80103978A3F910528F4C601ED
:1008A00003978A3F910540F0D0930401109205010F
:1008B00085E08093060153C0B801110F880B990B96
:1008C0000E94230620E030E04FE753E40E947905C0
:1008D00020E030E845EB53E40E94AF0620E030E032
:1008E0004AE952E40E940D050E94EB05C62F062F2F
:1008F000172FB601DD0C880B990B0E94230620E010
:1009000030E04FE753E40E94790520E030E046E70D
:1009100053E40E94AF0620E030E040E452E40E943D
:100920000D050E94EB059B010F3F110539F034F0D6
:10093000CF5FC0930401D093050104C0C0930401AC
:10094000109205012F3F310541F03CF091E0960FE8
:1009500090930601D093070104C0609306011092A2
:100960000701B0920201B0920301C7018871992773
:10097000892B31F48091C9019091CA01892B11F41E
:1009800090920301C70186729927892B31F48091D7
:10099000CB019091CC01892B11F4A0920201E0FCD3
:1009A00006C08091CD019091CE01892B29F48091D0
:1009B00003018F7D809303010E948C010ACFECE23A
:1009C000F1E01382128288EE93E0A0E0B0E084832D
:1009D0009583A683B7838DE191E09183808385EC35
:1009E00090E09587848784EC90E09787868780ECF9
:1009F00090E0918B808B81EC90E0938B828B82ECEA
:100A000090E0958B848B86EC90E0978B868B118E93
:100A1000128E138E148E08955058BB27AA270E9459
:100A200024050C9475060E94670638F00E946E0635
:100A300020F039F49F3F19F426F40C9464060EF468
:100A4000E095E7FB0C945E06E92F0E94860658F3BA
:100A5000BA17620773078407950720F079F4A6F5A3
:100A60000C94A8060EF4E0950B2EBA2FA02D0B01C6
:100A7000B90190010C01CA01A0011124FF27591BE3
:100A800099F0593F50F4503E68F11A16F040A22FE9
:100A9000232F342F4427585FF3CF4695379527955A
:100AA000A795F0405395C9F77EF41F16BA0B620B59
:100AB000730B840BBAF09150A1F0FF0FBB1F661FA0
:100AC000771F881FC2F70EC0BA0F621F731F841FE3
:100AD00048F4879577956795B795F7959E3F08F009
:100AE000B0CF9395880F08F09927EE0F97958795CB
:100AF00008950E948D050C9475060E946E0658F0AC
:100B00000E94670640F029F45F3F29F00C945E06CE
:100B100051110C94A9060C9464060E94860668F391
:100B20009923B1F3552391F3951B550BBB27AA27A6
:100B300062177307840738F09F5F5F4F220F331FE0
:100B4000441FAA1FA9F335D00E2E3AF0E0E832D0A8
:100B500091505040E695001CCAF72BD0FE2F29D0AB
:100B6000660F771F881FBB1F261737074807AB077D
:100B7000B0E809F0BB0B802DBF01FF2793585F4FF2
:100B80003AF09E3F510578F00C945E060C94A9064D
:100B90005F3FE4F3983ED4F3869577956795B795D4
:100BA000F7959F5FC9F7880F911D9695879597F9DF
:100BB0000895E1E0660F771F881FBB1F6217730758
:100BC0008407BA0720F0621B730B840BBA0BEE1F6D
:100BD00088F7E09508950E94F2056894B1110C948D
:100BE000A90608950E948E0688F09F5798F0B92FA5
:100BF0009927B751B0F0E1F0660F771F881F991F52
:100C00001AF0BA95C9F714C0B13091F00E94A80645
:100C1000B1E008950C94A806672F782F8827B85F55
:100C200039F0B93FCCF3869577956795B395D9F7A9
:100C30003EF490958095709561957F4F8F4F9F4FB3
:100C40000895E89409C097FB3EF4909580957095BF
:100C500061957F4F8F4F9F4F9923A9F0F92F96E908
:100C6000BB279395F695879577956795B795F1117D
:100C7000F8CFFAF4BB0F11F460FF1BC06F5F7F4F1A
:100C80008F4F9F4F16C0882311F096E911C077232C
:100C900021F09EE8872F762F05C0662371F096E835
:100CA000862F70E060E02AF09A95660F771F881F04
:100CB000DAF7880F9695879597F9089597F99F67C2
:100CC00080E870E060E008959FEF80EC08950024D4
:100CD0000A941616170618060906089500240A94A1
:100CE00012161306140605060895092E0394000C27
:100CF00011F4882352F0BB0F40F4BF2B11F460FFB6
:100D000004C06F5F7F4F8F4F9F4F089557FD9058DE
:100D1000440F551F59F05F3F71F04795880F97FBBF
:100D2000991F61F09F3F79F0879508951216130679
:100D30001406551FF2CF4695F1DF08C016161706A8
:100D40001806991FF1CF86957105610508940895DD
:100D5000E894BB2766277727CB0197F908950E946F
:100D6000C2060C9475060E94670638F00E946E0653
:100D700020F0952311F00C945E060C946406112467
:100D80000C94A9060E94860670F3959FC1F3950FF7
:100D900050E0551F629FF001729FBB27F00DB11DFF
:100DA000639FAA27F00DB11DAA1F649F6627B00D8F
:100DB000A11D661F829F2227B00DA11D621F739F78
:100DC000B00DA11D621F839FA00D611D221F749F86
:100DD0003327A00D611D231F849F600D211D822FCD
:100DE000762F6A2F11249F5750409AF0F1F08823F4
:100DF0004AF0EE0FFF1FBB1F661F771F881F915021
:100E00005040A9F79E3F510580F00C945E060C946B
:100E1000A9065F3FE4F3983ED4F3869577956795EE
:100E2000B795F795E7959F5FC1F7FE2B880F911D4A
:100E30009695879597F90895EE0FFF1F0590F49109
:100E4000E02D099481E090E0F8940C942707F89441
:020E5000FFCFD2
:100E5200635AFFFF0100050001014200000000008B
:100E620000FFFF0000000000000000000023018CD2
:0C0E720000BB006A01EC00CA00DE0000BA
:107E0000112484B714BE81FFF0D085E080938100F7
:107E100082E08093C00088E18093C10086E0809377
:107E2000C20080E18093C4008EE0C9D0259A86E02C
:107E300020E33CEF91E0309385002093840096BBD3
:107E4000B09BFECF1D9AA8958150A9F7CC24DD24C4
:107E500088248394B5E0AB2EA1E19A2EF3E0BF2EE7
:107E6000A2D0813461F49FD0082FAFD0023811F036
:107E7000013811F484E001C083E08DD089C08234E0
:107E800011F484E103C0853419F485E0A6D080C0E4
:107E9000853579F488D0E82EFF2485D0082F10E0AE
:107EA000102F00270E291F29000F111F8ED06801E7
:107EB0006FC0863521F484E090D080E0DECF843638
:107EC00009F040C070D06FD0082F6DD080E0C81688
:107ED00080E7D80618F4F601B7BEE895C0E0D1E017
:107EE00062D089930C17E1F7F0E0CF16F0E7DF06D8
:107EF00018F0F601B7BEE89568D007B600FCFDCFD4
:107F0000A601A0E0B1E02C9130E011968C91119780
:107F100090E0982F8827822B932B1296FA010C0160
:107F200087BEE89511244E5F5F4FF1E0A038BF0790
:107F300051F7F601A7BEE89507B600FCFDCF97BE46
:107F4000E89526C08437B1F42ED02DD0F82E2BD052
:107F50003CD0F601EF2C8F010F5F1F4F84911BD097
:107F6000EA94F801C1F70894C11CD11CFA94CF0C13
:107F7000D11C0EC0853739F428D08EE10CD085E9AC
:107F80000AD08FE07ACF813511F488E018D01DD067
:107F900080E101D065CF982F8091C00085FFFCCF94
:107FA0009093C60008958091C00087FFFCCF809118
:107FB000C00084FD01C0A8958091C6000895E0E648
:107FC000F0E098E1908380830895EDDF803219F02E
:107FD00088E0F5DFFFCF84E1DECF1F93182FE3DFCA
:107FE0001150E9F7F2DF1F91089580E0E8DFEE27F6
:047FF000FF270994CA
:027FFE00040479
:0400000300007E007B
:00000001FF
