:100000000C941D030C9445030C9445030C94450378
:100010000C9445030C9445030C9445030C94450340
:100020000C9445030C9445030C9467040C9446050A
:100030000C94E31B0C9445030C9445030C9445036A
:100040000C9445030C9445030C9445030C94450310
:100050000C9445030C9445030C9445030C94A80898
:100060000C9445030C9445030C9445030C944503F0
:100070000C9445030C9445030C9445030C944503E0
:100080000C9445030C9445030C9445030C944503D0
:100090000C9445030C9445030C9445030C944503C0
:1000A0000C9445030C9445030C9445035723672394
:1000B0006F23A0237C241424FE2343242E245525BF
:1000C000CC246425A525392590245F24E025B92575
:1000D000C125D825E825F025C925D125F825DE2616
:1000E0001926212639264D26542688269326A5260C
:1000F000B726BF26EB26FD2605271D2728272F27F5
:10010000E3275A2762277A278527AB27E1271C3167
:1001100073307330733073307330733073308529BC
:1001200088298C299029932997299A299E29733007
:10013000733073307330A129733073307330733080
:100140007330733073307330733073307330733097
:100150007330733073307330733073307330733087
:100160007330733073307330733073307330733077
:100170007330733073307330733073307330733067
:100180007330733073307B2A842A8B2A9B2AA32AEC
:10019000AF2ABB2AC62AD52BDD2BC92CD32A272B65
:1001A000332B5A2B682B9A2BA62BC62B512ED22BD6
:1001B0003E2D73307330733073307330733073305F
:1001C0007330733073307330733073307330733017
:1001D0007330733073307330733073307330733007
:1001E00073307330733073307330862DBF2DEC2D28
:1001F000032E3B2E552E822E992EB22E7330D22EE8
:100200002C2F3B2F6B2F782FA52F7330D22F04303C
:1002100007300A300D305730773073307330733019
:1002200073307330733086309330A030B329B829DF
:10023000BD29C229C729CC29D129D629DB29E02902
:10024000E529EA29EF29F429F929FE29032A082AB0
:100250000D2A1431122A172A1C2A212A262A2B2A6F
:10026000302A352A3A2A3F2A442A492A4E2A532A32
:10027000582A5D2A622A672A6C2A712A762ABC0DBE
:10028000BF0DAE0DB20DB60DE00DE00DE00DC30DCE
:10029000C70DCB0DD10DD50DE00DDB0D02160916E6
:1002A0000E16FF160717E3172D1860186818711837
:1002B00080189A18A01809171517EA170D18421870
:1002C000661726183B1825176E178C17C317982F1B
:1002D0008A4291443771CFFBC0B5A5DBB5E95BC25B
:1002E0005639F111F159A4823F92D55E1CAB98AA00
:1002F00007D8015B8312BE853124C37D0C55745D24
:10030000BE72FEB1DE80A706DC9B74F19BC1C169A1
:100310009BE48647BEEFC69DC10FCCA10C246F2C79
:10032000E92DAA84744ADCA9B05CDA88F9765251C6
:100330003E986DC631A8C82703B0C77F59BFF30BDD
:10034000E0C64791A7D55163CA0667292914850AD3
:10035000B72738211B2EFC6D2C4D130D38535473C9
:100360000A65BB0A6A762EC9C281852C7292A1E801
:10037000BFA24B661AA8708B4BC2A3516CC719E879
:1003800092D1240699D685350EF470A06A1016C154
:10039000A419086C371E4C774827B5BCB034B30C91
:1003A0001C394AAAD84E4FCA9C5BF36F2E68EE8266
:1003B0008F746F63A5781478C8840802C78CFAFF1D
:1003C000BE90EB6C50A4F7A3F9BEF27871C60000A2
:1003D0000000250028002B002E0031000000000046
:1003E000240027002A002D00300004040404040324
:1003F00004050202020204030202020206060606C5
:100400000606040402020204040504080201104066
:10041000804010204080408008020401804020106D
:1004200002011080102040402004080B000202024C
:10043000010009040000010202000005240010016F
:100440000524010101042402060524060001070514
:10045000810310004009040100020A0000000705A2
:100460000202400000070583024000000403090463
:1004700012010002EF020140C016380F0001010214
:100480000301556E6B6E6F776E0053696E64656E17
:100490004C6967687467756E0000000000230026D1
:1004A0000029002C002F000000000200090F0000AE
:1004B000030401000C000000000000000000000028
:1004C00000000000000000000000000000002A2BD7
:1004D00028000000000000000000000000000000F4
:1004E0000000000000002C9EB4A0A1A2A434A6A786
:1004F000A5AE362D3738271E1F202122232425267E
:10050000B333B62EB7B89F8485868788898A8B8C4B
:100510008D8E8F909192939495969798999A9B9C93
:100520009D2F3130A3AD350405060708090A0B0CD1
:100530000D0E0F101112131415161718191A1B1C73
:100540001DAFB1B0B50005010906A101850205077F
:1005500019E029E71500250175019508810295012B
:1005600075088103950675081500256505071900AE
:1005700029658100C005010902A1010901A10085C9
:10058000010509190129031500250195037501814C
:100590000295017505810305010930093116000036
:1005A00026FF7F36000046FF7F751095028102C04E
:1005B000C0070605040100080A0B0C0D0905010916
:1005C00004A10185030509190129201500250175DC
:1005D0000195205500650081020502150026FF00E7
:1005E000A10009BB09BA750895028102C00501097D
:1005F00039150025073500463B0165147504950142
:1006000081020939150025073500463B016514753F
:10061000049501810216000027FFFF0000751009F4
:1006200001A100093009310932093309340935952E
:10063000068102C0C0003D32213211241FBECFEF1F
:10064000DAE0DEBFCDBF12E0A0E0B1E0E8E4FEE614
:1006500002C005900D92A239B107D9F727E0A2E9AF
:10066000B2E001C01D92A035B207E1F713E0CCE182
:10067000D3E004C02197FE010E946735CB31D1073A
:10068000C9F70E949D210C9417370C9400004091EB
:100690005D0450915E0420915B0430915C0442172C
:1006A0005307B4F49091E8009570E1F39091E8005D
:1006B00092FD19C08093F10080915D0490915E04D9
:1006C00001968F739927892B19F48EEF8093E80098
:1006D00080915D0490915E04019690935E048093F6
:1006E0005D0481E0089580E008952FB7F894877045
:1006F0008093E9009091E800892F807295FF04C0F3
:100700009091F20080E4891B2FBF0895615030F072
:100710002091F100FC0120830196F8CF289884E60F
:100720008093AD040895CF92DF92EF92FF920F93E2
:100730001F93CF93DF936C017A018B01C0E0D0E06F
:10074000CE15DF0589F0D8016D918D01D601ED91AF
:10075000FC910190F081E02DC6010995892B11F4DF
:100760007E0102C02196ECCFC701DF91CF911F918E
:100770000F91FF90EF90DF90CF900895CF93DF938C
:100780001F92CDB7DEB76983DC01ED91FC91028049
:10079000F381E02D41E050E0BE016F5F7F4F09958E
:1007A0000F90DF91CF91089583E08093E9008091CD
:1007B000F200882319F08AE38093E800089583E02B
:1007C0000E94750390E00895FC018485958597FD4E
:1007D0000BC09FB7F89482E08093E9008091F2000B
:1007E0009FBF90E0019608959FB7F89482E08093B0
:1007F000E9008091F2009FBF90E008953FB7F89420
:1008000080914B0490914C04A0914D04B0914E0402
:1008100026B5A89B05C02F3F19F00196A11DB11D5B
:100820003FBFBA2FA92F982F8827820F911DA11D96
:10083000B11DBC01CD0142E0660F771F881F991FD3
:100840004A95D1F708950E94F536CF93DF931F9212
:10085000CDB7DEB7FC018485958597FD05C02FEFE8
:100860003FEF358724870BC0CE0101960E942320DD
:10087000019719F4898190E002C08FEF9FEF0F90EC
:10088000DF91CF9108950F931F93CF93DF931F9222
:10089000CDB7DEB78C01FC018485958597FF0EC02E
:1008A000CE0101960E942320019719F4298130E09E
:1008B00002C02FEF3FEFF80135872487F8018485C8
:1008C00095850F90DF91CF911F910F9108951F9201
:1008D0000F920FB60F9211248F939F938091E10096
:1008E0009091E100937F9093E10083FF0FC01092FD
:1008F000E90091E09093EB001092EC0092E390936A
:10090000ED001092AE0498E09093F00082FF20C0BA
:1009100093E09093E9009091F200992319F09AE303
:100920009093E80090915F04992339F090915F04CF
:10093000915090935F04992389F19091AD0499238C
:1009400039F09091AD0491509093AD04992341F109
:1009500084FF10C08091E2008E7E81608093E2006F
:100960008091E1008F7E8093E100809193028E7EE2
:10097000806111C080FF16C08091E2008E7E806190
:100980008093E2008091E1008E7E8093E10080916F
:1009900093028E7E81608093930204C05D9ACDCFD6
:1009A000289AD6CF9F918F910F900FBE0F901F90D6
:1009B0001895DF92EF92FF920F931F93CF93DF93DF
:1009C000D82E8A017B01E40EF51EEB01CE15DF0562
:1009D00071F0D7FE03C0FE01849101C088810E949E
:1009E000470321968111F2CF8FEF9FEF01C0C8011D
:1009F000DF91CF911F910F91FF90EF90DF900895BD
:100A00008091530481110DC082E080934F0484E0F3
:100A100080935004109252041092510481E080930C
:100A200053048FE494E008950F931F93CF93DF93C3
:100A30001F92CDB7DEB782E0898342E450E06AE2DC
:100A400074E080E80E94D9040E940005DC0112963F
:100A50000D911C9113970115110569F0D801ED91C5
:100A6000FC910280F381E02DBE016F5F7F4FC801D2
:100A7000099597FF07C089810F90DF91CF911F9152
:100A80000F910895F80100851185E5CF1F920F920F
:100A90000FB60F921124CF92DF92EF92FF920F9335
:100AA0001F932F933F934F935F936F937F938F93F6
:100AB0009F93AF93BF93EF93FF93CF93DF93CDB704
:100AC000DEB76C97DEBFCDBF1092E9008091E800E1
:100AD00083FFEDC168E0CE0145960E94860382EF58
:100AE0008093E8008D8987FF05C09091E80090FF12
:100AF000FCCF03C09EEF9093E800982F907609F00A
:100B0000C6C09E892F89188D91110CC0803829F498
:100B1000809194028093F10002C01092F100109233
:100B2000F10048C1422F50E0512B913051F4811116
:100B300041C14130510509F03DC1809194028D7F42
:100B40000BC0933061F4811135C14130510509F07A
:100B500031C1809194028260809394022BC19530C0
:100B600041F48091E80080FFFCCF20682093E300EF
:100B700021C1963009F05FC0EB8CFC8C1092E9002B
:100B800010925E0410925D04123091F510925C0494
:100B900010925B040E94140599E0BE016F5F7F4FC5
:100BA000DB01E92F1D92EA95E9F799831A8391E019
:100BB0009E8390EA98879AEF998720915D043091FF
:100BC0005E04275F3F4F3C832B838D831092E900A7
:100BD00010925E0410925D04F0925C04E0925B045B
:100BE00049E050E080E00E94D9040E941405E2C070
:100BF000F0925C04E0925B040E940005DC01129616
:100C0000ED90FC901397E114F10409F4C0C0D701F2
:100C1000ED91FC910480F581E02DBE016B5E7F4F6C
:100C2000C7010995009719F00CF0C4C0C7C0F701BF
:100C3000E084F184E8CF973009F4C0C0983021F403
:100C400081E08093F100B6C0993009F0B3C08370A1
:100C500009F0B4C0E9E0F1E081E021E036E3908101
:100C6000992361F08093E9002093EB009191909398
:100C7000EC003093ED008F5F873089F78EE780932B
:100C8000EA001092EA008F898093AE0493C08B8DA6
:100C90009C8D1092E90010925E0410925D04909376
:100CA0005C0480935B04898D811156C08E899D8977
:100CB000913A59F4813209F081C047E050E060E098
:100CC00071E080E00E94D90475C0913209F076C0CD
:100CD000833289F4888D90E0982F88272F89822B82
:100CE000A0E0B0E080930F0190931001A093110158
:100CF000B09312015FC0803269F48091E80082FFF6
:100D0000FCCF67E080E091E00E9486038BEF809348
:100D1000E80006C0823209F04DC08F898093070138
:100D200080919202882319F0EEEFFAE002C0E0E031
:100D3000F8E08091000190910101A0910201B09131
:100D40000301803B9440A105B10509F07BC080916F
:100D5000070180FF93C076C00E940005DC01129657
:100D60000D911C9113970115110541F1D801ED91D9
:100D7000FC910190F081E02DBE016B5E7F4FC801B8
:100D80000995811117C0F80100851185ECCF11304C
:100D900009F44EC0133091F48F89882309F445C0BB
:100DA000823081F440E86EE08AE894E00E94E43109
:100DB000882321F08EEF8093E80079C081E2809350
:100DC000EB0075C0813029F440E867E082E894E0E8
:100DD000EDCF833099F70E940005DC011296ED906B
:100DE000FC9013978E010F5F1F4F6801E114F1040F
:100DF00079F0D701ED91FC910680F781E02DB801E3
:100E0000C7010995080F111DF701E084F184EECFA9
:100E1000D8011C92F60101900020E9F73197BF013B
:100E20006C197D0940E0C601C1CF6CE674E002C0D8
:100E300060E774E06115710509F2FB01449150E02F
:100E400080E840CF0FB6F894A89580916000886143
:100E500080936000109260000FBEA895EE3F2AE0DC
:100E6000F20739F08091FE0A9091FF0A9183808306
:100E7000A1CF1092FF0A1092FE0A9CCFEE3F8AE0AB
:100E8000F80731F0808191819093FF0A8093FE0AE8
:100E900087E797E7918380839BE088E10FB6F8941A
:100EA000A895809360000FBE9093600083CF6C96EE
:100EB0000FB6F894DEBF0FBECDBFDF91CF91FF918B
:100EC000EF91BF91AF919F918F917F916F915F91C2
:100ED0004F913F912F911F910F91FF90EF90DF90D5
:100EE000CF900F900FBE0F901F901895CF93DF9368
:100EF00090E0FC01E65FFB4F2491FC01E651FC4FC2
:100F00008491882361F190E0880F991FFC01E452DD
:100F1000FC4FC591D491FC01E253FC4FA591B491D3
:100F2000611109C09FB7F894888120958223888336
:100F3000EC912E230BC0623061F49FB7F894388196
:100F4000822F809583238883EC912E2B2C939FBF37
:100F500006C08FB7F894E8812E2B28838FBFDF91CE
:100F6000CF9108958F929F92AF92BF92CF92DF92CE
:100F7000EF92FF926B017C010E94FE034B015C012A
:100F8000C114D104E104F104F1F00E94FE03DC017C
:100F9000CB0188199909AA09BB09883E9340A1058C
:100FA000B10570F321E0C21AD108E108F10888EE1A
:100FB000880E83E0981EA11CB11CC114D104E10469
:100FC000F10419F7DDCFFF90EF90DF90CF90BF9045
:100FD000AF909F908F9008957F928F929F92AF9243
:100FE000BF92CF92DF92EF92FF920F931F93CF9316
:100FF000DF93C82E8B017A018091AE04811103C06A
:101000008FEF9FEF75C08091930280FF05C08091A4
:10101000E00082608093E000CE2DDF2DD12C8AEF9E
:10102000882E8C2D8770B82E8C2D8072A82E8C2D3A
:101030008074982E9AE3792E209709F452C08C2D53
:101040000E947503282F81110AC08A948820C1F25A
:1010500061E070E080E090E00E94B207EDCF90E0A8
:10106000C817D9070CF42C2F3FB7F894B092E900B9
:101070008091E80085FF33C0822F90E0C81BD90B18
:10108000AA2029F02150A8F01092F100FBCFF8011E
:10109000C7FE07C0215058F044914093F1003196AB
:1010A000F9CF215020F041914093F100FACF080F81
:1010B000191FDD2019F07092E8000AC08091E80045
:1010C00085FD08C07092E800DD24D394209739F0A4
:1010D000D12C05C0209719F491107092E8003FBF01
:1010E000ABCFD110ACCF5D9884E680935F04C7018D
:1010F000DF91CF911F910F91FF90EF90DF90CF90F4
:10110000BF90AF909F908F907F900895CF93DF9383
:10111000EC0180910701882331F083E00E94EC0705
:101120001816190634F081E090E09B838A8380E0F2
:1011300090E0DF91CF9108952FB7F8946091470424
:10114000709148048091490490914A042FBF0895FA
:101150001F920F920FB60F9211242F933F938F93EC
:101160009F93AF93BF938091470490914804A091BF
:101170004904B0914A043091460423E0230F2D37EF
:1011800020F40196A11DB11D05C026E8230F02968B
:10119000A11DB11D209346048093470490934804F9
:1011A000A0934904B0934A0480914B0490914C045D
:1011B000A0914D04B0914E040196A11DB11D8093E4
:1011C0004B0490934C04A0934D04B0934E04BF91F4
:1011D000AF919F918F913F912F910F900FBE0F90E4
:1011E0001F9018952F923F924F925F926F927F922D
:1011F0008F929F92AF92BF92CF92DF92EF92FF9227
:101200000F931F93CF93DF93CDB7DEB7CC54D109A3
:101210000FB6F894DEBF0FBECDBF2D969FAF8EAF39
:101220002D971C0102E2200E311C8E599F4F988F82
:101230008F8BF10160817181828193810E946D3574
:1012400061937193819391932F89388DE217F307FE
:1012500089F72D96AEADBFAD2D9712964D915D914C
:101260006D917C9115974FA358A769A77AA71696F9
:101270004D905D906D907C9019974BA65CA66DA6E5
:101280007EA61A964D905D906D907C901D974FA60E
:1012900058AA69AA7AAA1E964D905D906D907C908E
:1012A00051974BAA5CAA6DAA7EAA52964D905D906A
:1012B0006D907C9055974FAA58AE69AE7AAE56960F
:1012C0004D905D906D907C9059974BAE5CAE6DAE3D
:1012D0007EAE5A964D905D906D907C905D97239672
:1012E0004CAE5DAE6EAE7FAE23975E964D905D9038
:1012F0006D907C90919727964CAE5DAE6EAE7FAEB2
:1013000027970EEC12E01E8B0D8B73016201239662
:101310002CAD3DAD4EAD5FAD23972F8F38A349A3C4
:101320005AA34BAD5CAD6DAD7EAD498B5A8B6B8BCB
:101330007C8B6FA978AD89AD9AAD6D837E838F83E9
:1013400098878BA99CA9ADA9BEA98BA39CA3ADA38B
:10135000BEA34FA458A869A87AA84B8E5C8E6D8E48
:101360007E8E6BA47CA48DA49EA469867A868B86CF
:101370009C868FA098A4A9A4BAA489829A82AB82E1
:10138000BC82ED89FE890591159125913491D10199
:101390004D905D906D907D901D014D815E816F81BE
:1013A0007885B62F672F742F452F5B2F400E511E67
:1013B000621E731E0D811E812F8138850095109548
:1013C000209530958F8C98A0A9A0BAA0082119214A
:1013D0002A213B2189889A88AB88BC888D819E818F
:1013E000AF81B88588229922AA22BB220825192517
:1013F0002A253B25040D151D261D371D2A013B01FD
:10140000440C551C661C771C411C440C551C661C66
:10141000771C411C4C015D018B2CBA2CA92C982EF9
:1014200080FAB794A79497948794B7F88424952466
:10143000A624B7242A013B0140FA77946794579475
:10144000479477F840FA779467945794479477F8DD
:1014500040FA779467945794479477F884249524B6
:10146000A624B724800E911EA21EB31EC80CD91C40
:10147000EA1CFB1C09811A812B813C81A02F032FC0
:10148000322F212F1A2F000F111F221F331F011D72
:10149000D901C801880F991FAA1FBB1F811D49814F
:1014A0005A816B817C8140FB77956795579547956D
:1014B00077F940FB779567955795479577F98C01B4
:1014C0009D01042715272627372749815A816B81DB
:1014D0007C81FA01AB01BF01440F551F661F771FC6
:1014E000411D440F551F661F771F411DDB01CA01B7
:1014F000880F991FAA1FBB1F811DB901A80148278A
:1015000059276A277B278B8C9C8CAD8CBE8C498499
:101510005A846B847C8484249524A624B72409816E
:101520001A812B813C8180229122A222B3220B8D31
:101530001C8D2D8D3E8D0421152126213721082556
:1015400019252A253B25400F511F621F731F8BA1B0
:101550009CA1ADA1BEA18C0D9D1DAE1DBF1D8D8793
:101560009E87AF87B88BDB01CA018C0D9D1DAE1D18
:10157000BF1D0D891E890C5F1F4F1E8B0D8B2B8D80
:101580003C8D4D8D5E8D2BA33CA34DA35EA3CF8CD4
:10159000D8A0E9A0FAA04F89588D2416350669F124
:1015A00009891A892B893C890F8F18A329A33AA38B
:1015B0002D813E814F815885298B3A8B4B8B5C8BDB
:1015C0004D855E856F8578894D835E836F837887CF
:1015D00049845A846B847C844B8E5C8E6D8E7E8EA7
:1015E00069807A808B809C8069867A868B869C86CF
:1015F00089839A83AB83BC83C4CE6EE073E07E8B19
:101600006D8B22242394312CF101EF70FF27389643
:10161000EE0FFF1FEE0FFF1F2D96EEACFFAC2D97C8
:10162000EE0DFF1D0281138124813581F1013D966C
:10163000EF70FF273896EE0FFF1FEE0FFF1FEE0D26
:10164000FF1DC280D380E480F5804FE0420DE42F7F
:10165000EF70B601A7013A014B0160FA97948794A5
:101660007794679497F82B966CAE7DAE8EAE9FAE56
:101670002B972D966EAD7FAD2D9744E0E49F600DC6
:10168000711D1124FB01B096F88FEF8BF101389694
:10169000EF70FF273896EE0FFF1FEE0FFF1F2D96FE
:1016A0004EAD5FAD2D974E0F5F1FEF89F88D4280D5
:1016B000538064807580FA0182809380A480B58015
:1016C000840C951CA61CB71C702E412E522E632E26
:1016D000B301A201440F551F661F771F411D28014A
:1016E0003901E3E07694679457944794EA95D1F7EB
:1016F0004426552666267726B80189019B0100FB02
:10170000379527951795079537F900FB3795279556
:101710001795079537F94026512662267326480CFF
:10172000591C6A1C7B1CFAE0F694E794D794C79482
:10173000FA95D1F72B968CAC9DACAEACBFAC2B9789
:10174000C824D924EA24FB2480FAB794A794979458
:101750008794B7F880FAB794A79497948794B7F8CA
:101760008C249D24AE24BF24840C951CA61CB71C7D
:10177000EF89F88D82829382A482B5826D897E89F9
:10178000FB0145905590659074904F8A588E698EF4
:101790007A8E0D851E852F853889F22F232F302FC5
:1017A000012F1F2F4D855E856F8578894095509557
:1017B0006095709549885A886B887C8844215521AA
:1017C000662177214D805E806F807884CD84DE84B1
:1017D000EF84F8884C205D206E207F206A017B0119
:1017E000C424D524E624F7244F89588D698D7A8D39
:1017F000C40ED51EE61EF71E28013901440C551CE7
:10180000661C771C411C440C551C661C771C411C33
:101810004D855E856F857889E42F472F762F652F5C
:101820005E2F40FB779567955795479577F9442547
:101830005525662577252801390140FA7794679464
:101840005794479477F840FA77946794579447945D
:1018500077F840FA779467945794479477F844253B
:101860005525662577254C0D5D1D6E1D7F1D840E4B
:10187000951EA61EB71E4F8C58A069A07AA0840C96
:10188000951CA61CB71CD82EE92EFA2ECB2ECC0CFC
:10189000DD1CEE1CFF1CC11C97018601000F111FEF
:1018A000221F331F011DAC01BD0140FB77956795D9
:1018B0005795479577F940FB7795679557954795E5
:1018C00077F968017901C426D526E626F726BC01FA
:1018D000AD01440F551F661F771F411D440F551F53
:1018E000661F771F411D8A019B01000F111F221FD8
:1018F000331F011DB701A601402751276227732717
:10190000C984DA84EB84FC8409811A812B813C81AF
:10191000C026D126E226F326C822D922EA22FB22BB
:1019200009851A852B853C8549805A806B807C808F
:1019300004211521262137210C251D252E253F2583
:10194000400F511F621F731F4B8C5C8C6D8C7E8C03
:10195000480C591C6A1C7B1C480D591D6A1D7B1DB7
:101960000FEF201A300A2D893E892C5F3F4F3E8BA6
:101970002D8B89849A84AB84BC848B8E9C8EAD8E97
:10198000BE8EA988BA88CB88DC88AF8EB8A2C9A2DF
:10199000DAA201E32016310419F18D809E80AF8018
:1019A000B884898A9A8AAB8ABC8AAD84BE84CF8483
:1019B000D888AD82BE82CF82D8864D865E866F86FD
:1019C000788AC980DA80EB80FC80C986DA86EB866B
:1019D000FC8689839A83AB83BC83DB01CA0114CE66
:1019E0008FA098A4A9A4BAA4480D591D6A1D7B1DF7
:1019F0002D96EEADFFAD2D9742835383648375839F
:101A00008BA49CA4ADA4BEA4880D991DAA1DBB1DCA
:101A100086839783A087B18789819A81AB81BC81B6
:101A20008FA498A8A9A8BAA8880D991DAA1DBB1DA6
:101A300082879387A487B58789859A85AB85BC857E
:101A40008BA89CA8ADA8BEA8880D991DAA1DBB1D7A
:101A500086879787A08BB18B8FA898ACA9ACBAACBE
:101A6000480C591C6A1C7B1C428A538A648A758AFA
:101A70008D859E85AF85B8894BAC5CAC6DAC7EAC7A
:101A8000840D951DA61DB71D868B978BA08FB18FDA
:101A90008D819E81AF81B88523964CAC5DAC6EACD8
:101AA0007FAC2397840D951DA61DB71D828F938F44
:101AB000A48FB58F89899A89AB89BC8927964CAC4C
:101AC0005DAC6EAC7FAC2797840D951DA61DB71D30
:101AD000868F978FA0A3B1A3C45BDF4F0FB6F89496
:101AE000DEBF0FBECDBFDF91CF911F910F91FF9051
:101AF000EF90DF90CF90BF90AF909F908F907F90AE
:101B00006F905F904F903F902F900895FC018085DB
:101B100080FD04C082FB882780F9089580E0089545
:101B2000FC01218530E0F901E955FB4F8491F90171
:101B3000E65FFB4F4491F901E651FC4F24912223CB
:101B400009F44AC08823E1F190E0FC013197EF30BD
:101B5000F105B0F5E15CFE4F0C9467358091800093
:101B60008F7707C0809180008F7D03C080918000B7
:101B7000877F8093800024C084B58F7702C084B5AE
:101B80008F7D84BD1DC0809190008F7707C08091AC
:101B900090008F7D03C080919000877F809390009C
:101BA0000FC08091C0008F7703C08091C0008F7DEF
:101BB0008093C00005C08091C200877F8093C200DF
:101BC000E22FF0E0EE0FFF1FE756FB4FA591B49117
:101BD000EC914E2381E009F480E081700895AF928A
:101BE000BF92CF92DF92FF920F931F93CF93DF9319
:101BF000EC0188858B7F8887E881F9810190F081ED
:101C0000E02DCE010995F82E98859695917089174B
:101C100059F00E949C086A837B838C839D839885FE
:101C200082E0892788872AC00E949C080A811B813C
:101C30002C813D815B016C01A01AB10AC20AD30A52
:101C40004E815F8160E070E0A416B506C606D70637
:101C5000A8F098859170F91689F00E949C086A8313
:101C60007B838C839D83988581E089278460888726
:101C70000E949C086A877B878C879D87888582FB6A
:101C8000882780F9DF91CF911F910F91FF90DF900E
:101C9000CF90BF90AF90089580919E0290919D0249
:101CA00091118C5F90919C0291118E5F282F30E0F2
:101CB00040913407509135072417350759F0309378
:101CC0003507209334078093F7058091040681112E
:101CD0000C940D1F0895CF93DF93EC018D5F910954
:101CE000039768F4CF3FD10579F081E0CE3FD1056D
:101CF00019F48093840415C08093830412C0CB3FF1
:101D0000D10531F41092730481E08093850409C0F9
:101D1000CA3FD10531F410927204109285041092DA
:101D20008304CE0180978B3B910528F46C2F8FE5BF
:101D300095E00E94D11DCE0101978331910528F4D1
:101D400060E0DF91CF910C94E61FDF91CF91089571
:101D5000CF93DF93EC018C3F910539F490913103DF
:101D600081E08927809331030DC08B3F910521F4D9
:101D700081E08093730406C08A3F910519F481E0E5
:101D800080937204CE018D5F9109039778F481E00E
:101D9000CF3FD10519F48093880408C0CE3FD10508
:101DA00019F48093870402C080938604CE01809743
:101DB0008B3B910530F46C2F8FE595E00E941D1E42
:101DC0001DC0C93FD105D1F462E88FE595E00E94BE
:101DD0001D1E62E68FE595E00E941D1E62E370E025
:101DE00080E090E00E94B20762E68FE595E00E94F5
:101DF000D11D62E88FE595E00E94D11DCE010197CB
:101E00008331910518F461E00E94E61F81E0809320
:101E10003003DF91CF910895862F642F0C947607BD
:101E2000CF92DF92EF92FF920F931F93CF93DF93A6
:101E300010928804109287041092860410928504F0
:101E400010928404109283041092820410928104F0
:101E5000109280049091360380919B02891779F04B
:101E600090939B022091170330911803992321F03E
:101E7000C9010E94A80E03C0C9010E946B0E8FEB1E
:101E800095E00E94EF0D882309F440C08FEB95E0A8
:101E90000E94860D882351F081E08093A2029091E8
:101EA0003803992329F08093820402C01092A20281
:101EB0008091A2028823C1F080913203811106C073
:101EC00080912503909126030E94A80E80913203F1
:101ED0008823E1F081E08093690480910F03909161
:101EE00010030E94A80E12C0809125039091260332
:101EF0000E946B0E80916904882341F0109269045E
:101F000080910F03909110030E946B0E83EA95E07D
:101F10000E94EF0D882309F440C083EA95E00E94F7
:101F2000860D882351F081E08093A00290913703C1
:101F3000992329F08093820402C01092A00280911C
:101F4000A0028823C1F080913203811106C08091E4
:101F50002303909124030E94A80E809132038823CA
:101F6000E1F081E08093680480910D0390910E036D
:101F70000E94A80E12C080912303909124030E9416
:101F80006B0E80916804882341F010926804809160
:101F90000D0390910E030E946B0E8DEC95E00E9454
:101FA000EF0D882309F440C08DEC95E00E94860D6A
:101FB000882351F081E08093A30290913A03992302
:101FC00029F08093820402C01092A3028091A302A0
:101FD0008823C1F080913203811106C080912903CA
:101FE00090912A030E94A80E809132038823E1F089
:101FF00081E08093670480911303909114030E9401
:10200000A80E12C08091290390912A030E946B0EA2
:1020100080916704882341F0109267048091130334
:10202000909114030E946B0E8BED95E00E94EF0DD2
:10203000882371F18091E3058570853009F020C314
:1020400081E080939F0290913C03992329F0909125
:102050002F03992309F41FC380919F02882309F459
:1020600028C380913203811106C080911903909199
:102070001A030E94A80E80913203882349F081E060
:102080008093660480910303909104030E94A80E3C
:1020900081EB95E00E94EF0D882309F440C081EBAD
:1020A00095E00E94860D882351F081E08093A10283
:1020B00090913903992329F08093820402C01092F1
:1020C000A1028091A1028823C1F080913203811185
:1020D00006C080912703909128030E94A80E80914A
:1020E00032038823E1F081E080936504809111033D
:1020F000909112030E94A80E12C080912703909124
:1021000028030E946B0E80916504882341F0109291
:10211000650480911103909112030E946B0E85E972
:1021200095E00E94EF0D8823D1F185E995E00E94AA
:10213000860D882321F081E080937F0402C01092F5
:102140007F0480917F048823C1F080913203811144
:1021500006C080912103909122030E94A80E8091D5
:1021600032038823E1F081E08093640480910B03C3
:1021700090910C030E94A80E12C0809121039091AF
:1021800022030E946B0E80916404882341F0109218
:10219000640480910B0390910C030E946B0E87E8FE
:1021A00095E00E94EF0D8823D1F187E895E00E9429
:1021B000860D882321F081E080937E0402C0109276
:1021C0007E0480917E048823C1F0809132038111C6
:1021D00006C080911F03909120030E94A80E809159
:1021E00032038823E1F081E0809363048091090346
:1021F00090910A030E94A80E12C080911F03909133
:1022000020030E946B0E80916304882341F010929A
:1022100063048091090390910A030E946B0E8091E0
:102220003503882349F180917D04882329F1C090EA
:102230007904D0907A04E0907B04F0907C04C1147F
:10224000D104E104F104C1F00E949C08DC01CB013F
:102250008C199D09AE09BF09893B9B40A105B105B9
:1022600058F081E080932D031092790410927A0443
:1022700010927B0410927C04809134038823F1F146
:10228000809178048823D1F1C0907404D0907504B3
:10229000E0907604F0907704C114D104E104F104D5
:1022A00069F10E949C08DC01CB018C199D09AE09E3
:1022B000BF09893B9B40A105B10500F11092740450
:1022C00010927504109276041092770480913F0367
:1022D000882329F010923F03109240030FC0809191
:1022E0004003882321F081E080933F0307C00E94D0
:1022F000311581E08093400310923F0389E795E018
:102300000E94EF0D882309F448C089E795E00E94F8
:10231000860D882391F081E080937D0480913503C0
:10232000882369F00E949C086093790470937A0472
:1023300080937B0490937C0402C010927D04809172
:102340007D048823C1F080913203811106C0809101
:102350001D0390911E030E94A80E809132038823D2
:10236000E1F081E08093620480910703909108037B
:102370000E94A80E12C080911D0390911E030E941E
:102380006B0E80916204882341F010926204809168
:102390000703909108030E946B0E8BE695E00E9464
:1023A000EF0D882309F448C08BE695E00E94860D66
:1023B000882391F081E0809378048091340388230E
:1023C00069F00E949C086093740470937504809374
:1023D00076049093770402C0109278048091780478
:1023E0008823C1F080913203811106C080911B03C4
:1023F00090911C030E94A80E809132038823E1F083
:1024000081E08093610480910503909106030E940E
:10241000A80E12C080911B0390911C030E946B0EAA
:1024200080916104882341F010926104809105033A
:10243000909106030E946B0E89EE95E00E94EF0DCD
:10244000882399F18091F105857090913E03853044
:1024500009F043C181E08093A40280913203992363
:1024600029F090912F03992309F459C1882309F485
:1024700065C18091A402882309F43DC18091320393
:10248000811106C080912B0390912C030E94A80E0D
:1024900080913203882349F08091150390911603AF
:1024A0000E94A80E81E080936004809188048823B4
:1024B00021F081E080939E0205C080918504811106
:1024C00010929E0280918704882321F081E08093FE
:1024D0009D0205C080918404811110929D0280911B
:1024E0008604882321F081E080939C0205C08091BE
:1024F0008304811110929C0280917304882331F02F
:1025000090919E0281E0892780939E0280917204BF
:102510008823C9F1809170049091710464E670E0A1
:102520000E945335892B29F580916E0490916F0498
:1025300020919E0205975CF081E080939C028227A7
:1025400080939E0210926F0410926E0407C0109246
:102550009C0291E0822F892780939E020E944C0E5C
:1025600080916E0490916F04019690936F04809314
:102570006E0480917004909171040196909371049F
:102580008093700402C00E944C0E80912E03882319
:1025900009F458C010922E03C091A402D0E080919B
:1025A0009F02811122968091A3028111249680912D
:1025B000A202811128968091A102811160968091DA
:1025C000A0028111A09600917F0410E080917E040A
:1025D000882311F00E5F1F4F80917D04882311F036
:1025E0000C5F1F4F80917804882311F0085F1F4F04
:1025F00080916C0490916D04C817D90739F48091CB
:102600006A0490916B0408171907E1F06EEF8FE0F0
:1026100095E00E94BE036C2F8FE095E00E94BE0300
:10262000602F8FE095E00E94BE0366E98FE095E0A1
:102630000E94BE03D0936D04C0936C0410936B048E
:1026400000936A0480914003882309F488C0809134
:10265000820481110E941A158091810481110E94C7
:10266000091580918004882309F479C0DF91CF9106
:102670001F910F91FF90EF90DF90CF900C94F81482
:1026800010929F0290913B0380912F03992331F088
:10269000811104C081E080938204DECC882309F498
:1026A000DBCC6AEC8FE095E00E94BE0310922F0312
:1026B000D3CC8091190390911A030E946B0E8091E4
:1026C0006604882309F4E4CC109266048091030325
:1026D000909104030E946B0EDBCC1092A40299230C
:1026E00009F4C7CE80913F03882309F4C2CE81E06C
:1026F00080938004BECE80912B0390912C030E9486
:102700006B0E80916004882309F4CFCE1092600490
:1027100080911503909116030E946B0EC6CE8823FC
:1027200029F090913D03992309F4A0CE90913F03A5
:10273000911111C091E09093820498CE80912F0363
:10274000882309F496CE69EC8FE095E00E94BE03E1
:1027500010922F038ECE91E09093810487CEDF916B
:10276000CF911F910F91FF90EF90DF90CF90089540
:102770000F931F93CF93DF9300D000D0CDB7DEB778
:102780008C0183E192E0F8019183808312821382AD
:10279000148215828AE090E0978386831086618791
:1027A000C80129833A834B835C830E94900D298161
:1027B0003A814B815C81882321F0F8018085836018
:1027C000808729833A834B835C830E949C08F801AD
:1027D000628373838483958329813A813783268337
:1027E0000F900F900F900F90DF91CF911F910F914D
:1027F000089520910D0530910E05232B51F49091F1
:10280000A602911106C08093A50281E08093A602E2
:10281000089580E0089510920E0510920D05109213
:10282000A50280E28093B8001092B900ECEBF0E0D2
:102830008081846480838081806480831092A80278
:10284000109205051092A7021092A6020895809199
:1028500009058430E1F48091B0048823C1F0E82FA9
:10286000F0E0EF54FB4F9091AF0490838F5F809323
:10287000D20281EB94E09093D1028093D002109227
:10288000AF021092D30281E08093E402089580E0C9
:102890000895909109059430C9F49091B00496324E
:1028A000A8F4E92FF0E0EF54FB4F80839F5F9093F3
:1028B000B0049091B3049F5F9093B3049091AF04E0
:1028C0009F5F890F8093AF0481E0089580E00895B1
:1028D000982F97709F5F21E030E001C0220F9A95FA
:1028E000EAF7215098E0299F90011124822708954A
:1028F00080915003882309F479C085E78093E3042D
:102900008091F4029091F5029093E4048093E504A1
:102910008091F6029091F7029093E6048093E70489
:102920008091F8029091F9029093E8048093E90471
:102930008091FA029091FB029093EA048093EB0459
:102940008091FE029091FF029093EC048093ED043D
:1029500080910003909101039093EE048093EF0423
:102960008091FC029091FD029093F0048093F10419
:10297000809102038093F2048091F3028093F30428
:102980008091F2028093F4048091F1028093F50427
:102990008091E9028093F6048091E7028093F70426
:1029A0008091E5029091E6029093F8048093F904F7
:1029B0008091EF0280588093FA048091ED02805854
:1029C0008093FB048091EB028093FC048091EC02E5
:1029D0008093FD0480915103823040F020E030E08C
:1029E0004BE167E48091E1020C94CF1E80E00895F2
:1029F00080915003882361F080915103823040F030
:102A000020E030E040E064E48091E1020C94CF1ECD
:102A1000089580915003882361F0809151038230A2
:102A200040F020E030E040E063E48091E1020C946B
:102A3000CF1E089580915003882391F08091510317
:102A4000813031F420E030E043E060E480E406C00F
:102A500022E330E040E060E48091E1020C94CF1E7C
:102A6000089580915003882361F080915103823052
:102A700040F020E030E040E06DE48091E1020C9411
:102A8000CF1E80E008951092E4021092B00484E01A
:102A9000809309051092D3021092A9021092AE02FF
:102AA00008958091E402811103C08091AE0202C0BA
:102AB00081E090E0817008951F93CF93DF93C091E0
:102AC0005C031091D5028C2F0E946814811108C0FC
:102AD00031E020E0C11101C030E0832F922F02C00D
:102AE00081E090E0412F4F70242F30E0BC0102C004
:102AF000660F771F4A95E2F73195219531092F70BE
:102B00003327EC0102C0D695C7952A95E2F7C62B6C
:102B1000D72B8C2F81500E946814C80FD11D12959D
:102B20001F70812F90E09E0102C0220F331F1A9563
:102B3000E2F79195819591098F70992702C0D695FA
:102B4000C7958A95E2F7C22BD32B8C2F0E9468146D
:102B500070E4879FC00DD11D11241091D80280917F
:102B6000DF020E94681491E0910F8127890F9D2F49
:102B700098279093DD028095C827C093DE02DF91ED
:102B8000CF911F91089580919702811107C0809184
:102B90009602811106C082E090E0089580E090E006
:102BA000089581E090E008959091970291110AC0F4
:102BB00080938A046093890481E080939702109245
:102BC0009602089580E00895CF93DF9380914F039C
:102BD000E091E202882359F010924F0380919A020B
:102BE000882329F0E13019F4815080939A028E2FC6
:102BF00090E08931910508F0C4C2FC01E25BFE4F10
:102C00000C94673580914E03833009F0BAC281E09D
:102C1000B6C280919A028111B4C2B0C28091DC0226
:102C200090919802891739F0882311F083E001C050
:102C300084E08093E20280910305882329F087E0F5
:102C40008093E20281E008C08091D402882339F0A9
:102C50008DE08093E20282E08093E30292C2809151
:102C6000D702882329F08EE08093E20283E0F4CF3C
:102C700080919702882331F010928E0484E0809333
:102C8000E30248C18091DB02882331F010928E0468
:102C900089E08093E30295C18091E002882329F0C6
:102CA0008FE08093E30282E16AC2809195028823DB
:102CB00049F18091DC049091DD04892B19F10E9487
:102CC0009C08C0918C04D0918D046C1B7D0B80916D
:102CD000DC049091DD0468177907A0F080919902D7
:102CE000809348030E949C086C1B6093470381E01B
:102CF0008093D804109295021092DD041092DC04A7
:102D000010929902C0919902C23009F44BC028F484
:102D1000CC2359F0C130F1F034C2C43089F108F449
:102D200050C0C53009F45AC02CC280919502882346
:102D300009F427C28091DC049091DD04892B09F409
:102D400020C264E080E00E94D415882309F419C2EF
:102D500081E013C00E94C31581309105F9F4809180
:102D6000520381FF45C090915503983008F040C050
:102D7000C093D90482FF0EC082E08093990201C201
:102D80000E94C3158130910529F581E08093DB0411
:102D90008091520383FF2AC083E0EFCF029709F0AE
:102DA000F0C126C08091550399E0899F802D1124A0
:102DB00069E0825F0E94D415882309F4E2C184E0AF
:102DC000DCCF61E486E50E94D415882309F4D9C1DB
:102DD00085E0D3CF029709F0D4C1CECF0E94C315AE
:102DE0008130910541F481E08093DA0410929502DC
:102DF00010929902C6C1029709F0C3C1CDCF8AE0F3
:102E00000E94F11E882309F4BCC185E0B8C189E0A5
:102E1000F7CF8091D70480938B048BE00E94F11E42
:102E2000882309F4AEC18FE00BC08091D704809352
:102E30008B048BE00E94F11E882309F4A2C180E17B
:102E40008093E20210928E049CC1C0918A04D091BA
:102E500089040E945115811194C180910905843023
:102E600009F08FC1D093AC028C2F90E08E5A9C4F0A
:102E70009093AB028093AA028091D7048093B1040F
:102E800092E09093B20491E09093B304C093B404A1
:102E9000C80FCD5FC093B5048F5F8093D70485E0E2
:102EA0008093D20221EB34E03093D1022093D00200
:102EB0001092AF021092D3029093E4029093AE026C
:102EC0001092A9029093AD0286E159C18CE00E9454
:102ED000F11E882309F455C183E151C18091AD02EF
:102EE00081114FC18091A902882331F0109297027D
:102EF00081E08093960254C080918E048F5F80930E
:102F00008E04833039F41092970282E08093E202BB
:102F100087E0A2CE85E133C10E945115811131C1F4
:102F200090910905943009F02CC126E02093AC0261
:102F300041E453E05093AB024093AA028091D7043E
:102F40008093B1042093B2041092B304280F20930D
:102F5000B4048F5F8093D7049093D20281EB94E006
:102F60009093D1028093D0021092AF021092D302BC
:102F700081E08093E4028093AE021092A9028093D4
:102F8000AD0288E1FCC08091AD028111FAC0809150
:102F9000A902882341F01092DB0281E08093DA02DB
:102FA0001092E302EBC080918E048F5F80938E04B9
:102FB000833039F41092DB0282E08093E2028CE0ED
:102FC0004BCE87E1DCC00E942714882309F4D9C0C6
:102FD00086E0D5C080918E04813061F018F0833096
:102FE00091F0CFC081E00E944914882309F4C9C040
:102FF00081E029C08091D5020E944914882309F4F8
:10300000C0C083E020C00E942714882309F4B9C0FF
:1030100081E18093E20284E016C080918E048130C9
:1030200031F018F0833031F0ACC082E0DCCF809119
:10303000D802E2CF0E942714882309F4A2C081E1BC
:103040008093E20285E080938E049BC00E94271447
:10305000882309F496C084E192C00E945115811121
:1030600090C08091D302882309F488C08091DC024B
:103070008093980283C00E945115811182C01092E2
:10308000E0027CC00E94511581117BC089E08093D1
:10309000E3028091D302882309F470C01092E30206
:1030A00080918E04843019F41092D40204C08530CB
:1030B00011F41092D70280918B048093DF025EC0DE
:1030C00083E00E94F11E882309F45BC088E057C0AA
:1030D0008091E2040E944914882309F452C089E0D7
:1030E0004EC08091E1040E944914882309F449C02C
:1030F0008091E004882311F08AE041C08BE03FC05A
:10310000E091DE04F091DF0480810E94491488235D
:10311000C1F18091E00481508093E004882371F331
:103120008091DE049091DF0401969093DF048093F8
:10313000DE0427C00E942714882319F18CE01FC0E9
:103140008AE08093E3020E94511581111AC0809198
:10315000D302882389F01092E3028091DC049091DD
:10316000DD04892B49F00E949C0870938D046093C4
:103170008C0481E0809395021092030582E0809395
:10318000E202DF91CF91089590910905943071F496
:103190009091B004903250F4E92FF0E0E055FD4FEB
:1031A00080839F5F9093B00481E0089580E008954C
:1031B000FC0187E696EEA9E0BAE682839383A483B6
:1031C000B58385E89EEAA7E6BBEB86839783A08755
:1031D000B18782E793EFAEE6BCE382879387A4874B
:1031E000B5878AE395EFAFE4B5EA86879787A08B2A
:1031F000B18B8FE792E5AEE0B1E5828B938BA48B28
:10320000B58B8CE898E6A5E0BBE9868B978BA08F01
:10321000B18F8BEA99EDA3E8BFE1828F938FA48FE2
:10322000B58F89E19DECA0EEBBE5868F978FA0A3BB
:10323000B1A3DF01A659BF4F1C92EE59FF4F108278
:1032400011821282138214821582168217820895C7
:1032500080E490E0089580E290E00895089580E091
:1032600090E00895DC01FB0112968C91129790E09A
:103270002481358182179307D1F491818081813A2D
:1032800031F481E0913091F0933089F411C08132B2
:1032900071F49B3021F482811F968C9305C09A3083
:1032A00031F4828150968C9381E00895089580E0F6
:1032B0000895DC01FB0188E4808389E4818384E450
:1032C00082831D969C911D979F709F5B93831D9693
:1032D0008D919C911E9724E0969587952A95E1F70C
:1032E0008F708F5B848385E00895FC0182818F5B02
:1032F000FB01808381E008956F927F928F929F926D
:10330000AF92BF92CF92DF92EF92FF920F931F93F3
:10331000CF93DF934C013B01EA019A0140E050E07A
:1033200060E070E080E090E003E00E947435F4011A
:10333000EE59FF4FA080B180C280D380E480F58039
:10334000068117810E94AB352083318342835383EA
:103350006483758386839783840106591F4F80E4B5
:10336000A82E740122E2E20EF11C209721F1F8014F
:103370008081BA2CB81A2B2D30E0C217D30708F47D
:10338000BC2ECB2CD12CA601B3019701280F311DE7
:10339000C9010E940737F80180818B0D8083CC1909
:1033A000DD096C0C7D1C803401F7C4010E94F20819
:1033B000F8011082DACFDF91CF911F910F91FF902A
:1033C000EF90DF90CF90BF90AF909F908F907F90C5
:1033D0006F9008954F925F926F927F928F929F921B
:1033E000AF92BF92CF92DF92EF92FF920F931F9313
:1033F000CF93DF93EC016B01942EA52E7C0182E22A
:10340000E80EF11CFE01E659FF4F2081822F90E06B
:103410008E010E591F4FD701A80FB91F283308F08E
:103420006BC020E82C93808190E047E350E0481B7C
:10343000590B019660E070E08E0D9F1D0E941037C1
:10344000D8018C901196BC9011971296FC9112970E
:103450001396EC91139714966C91149715967C9192
:103460001597282D3B2D4F2F5E2F16968C91169772
:1034700017969C9100E20E948F35C901DA01AE01D6
:10348000465A5F4F782E6624552444240B2F11276B
:10349000222733270429152926293729492E5A2E70
:1034A0006B2E7724442466247724042915292629A1
:1034B0003729BA2FA92F982F882788279927BB2724
:1034C000082B192B2A2B3B2BDA010D931D932D93DF
:1034D0003C931397682D7B2D8F2F9E2F0E946D3567
:1034E000FE01E25AFF4F6083718382839383CE0192
:1034F0000E94F208229618C020E82C93808190E068
:103500004FE350E0481B590B019660E070E08E0DD0
:103510009F1D0E941037CE010E94F20888E3F70138
:1035200011928A95E9F78CCF699179918991999156
:103530000E946D356C8F7D8F8E8F9F8FCE15DF052E
:1035400099F7492D5A2D4132510510F040E250E0D3
:10355000B701C601DF91CF911F910F91FF90EF90BE
:10356000DF90CF90BF90AF909F908F907F906F90A3
:103570005F904F900C9407378F929F92AF92BF92BB
:10358000CF92DF92EF92FF920F93CF93DF9300D011
:10359000CDB7DEB74C017B01BA016901DC01ED91C9
:1035A000FC910680F781E02D49837A8309955C01BF
:1035B000D401ED91FC910084F185E02DC4010995C1
:1035C00069817A81AC14BD0428F0A601C7010E946C
:1035D000073724C0D401ED91FC910284F385E02DDE
:1035E000A601C4010995D401ED91FC910480F581F7
:1035F000E02DC40109956C01D401ED91FC91048486
:10360000F585E02DAC01B701C4010995D401ED9118
:10361000FC910084F185E02DC401099547018C0CD3
:103620009D1CA5014C195D09602F70E0C4010E942A
:103630001037F701E815F90521F090819027919353
:10364000F9CF0F900F90DF91CF910F91FF90EF90F6
:10365000DF90CF90BF90AF909F908F9008950F9381
:10366000CF93DF93EC019A01829606E3AB01BC0194
:10367000CE010E94BC1AFE01EE59FF4F208131811C
:103680004281538164817581868197813E5F4F4F6E
:103690005F4F6F4F7F4F8F4F9F4F20833183428308
:1036A00053836483758386839783CE01DF91CF91A3
:1036B0000F910C94F208EF92FF920F931F93CF9308
:1036C000DF93FB012081213851F52381223239F526
:1036D000DC0112962C9130E044815581421753074A
:1036E000F1F4EC010B851C85E12CF12C0115110581
:1036F00091F0F801448155816281738180E80E94D4
:10370000D9048F3FFFEF9F0769F0E80EF91ED8013B
:103710000D911C91EBCF81E08F87C70105C080E040
:1037200090E002C08FEF9FEFDF91CF911F910F913B
:10373000FF90EF900895CF93DF93CDB7DEB76997F1
:103740000FB6F894DEBF0FBECDBFFC01DB018C913C
:103750008F5F8C93BE016F5F7F4F89E1DB011D920C
:103760008A95E9F729E0298384E08A8391E09D83A3
:1037700083E08E832A8721E22B879C879D879F8702
:1037800022E2288B27E02B8B25E02C8B8E8B20E4EC
:1037900030E0388F2F8B998F82818B83958586853A
:1037A000998B8A8B838180688D8B49E150E080E022
:1037B0000E94D90469960FB6F894DEBF0FBECDBF44
:1037C000DF91CF9108951F920F920FB60F9211249F
:1037D0002F934F935F936F937F938F939F93AF93A9
:1037E000BF93209184008091A9049091AA04A09194
:1037F000AB04B091AC04820F911DA11DB11D80934B
:10380000A9049093AA04A093AB04B093AC04809154
:10381000A9049091AA04A091AB04B091AC0440918A
:10382000A9045091AA046091AB047091AC042AE001
:10383000880F991FAA1FBB1F2A95D1F7840F951FC8
:10384000A61FB71F8093A9049093AA04A093AB046A
:10385000B093AC048091A9049091AA04A091AB0408
:10386000B091AC044091A9045091AA046091AB04BA
:103870007091AC0426E0B695A795979587952A9503
:10388000D1F784279527A627B7278093A90490937B
:10389000AA04A093AB04B093AC048091A8048F5FFA
:1038A0008093A804BF91AF919F918F917F916F9169
:1038B0005F914F912F910F900FBE0F901F90189511
:1038C000680F791F8617970721F0FC011082019677
:1038D000F9CF08956F927F928F929F92AF92BF928D
:1038E000CF92DF92EF92FF920F931F93CF93DF93CC
:1038F000CDB7DEB7A0970FB6F894DEBF0FBECDBF31
:103900007C014B013A0169015801DC01ED91FC9108
:103910000484F585E02D40E250E0BE016F5F7F4FEB
:103920000995B7016E5D7F4F0CE59301A401C701B6
:103930000E94BC1AF701EE59FF4F2081318142816C
:10394000538164817581868197813E5F4F4F5F4FC0
:103950006F4F7F4F8F4F9F4F20833183428353831D
:103960006483758386839783C7010E94F208D70119
:10397000ED91FC910284F385E02D40E250E0BE0120
:103980006F5F7F4FC7010995D701ED91FC910484CA
:10399000F585E02DA501B601C701099560E270E04B
:1039A000CE0101960E94601CA0960FB6F894DEBF6F
:1039B0000FBECDBFDF91CF911F910F91FF90EF9080
:1039C000DF90CF90BF90AF909F908F907F906F903F
:1039D0000895CF93DF93EC0169E670E002960E94B0
:1039E000601CE881F9810084F185E02DCE01DF9132
:1039F000CF9109942DE532E0FC0121933193CF0161
:103A000069E670E00C94601CCF93DF93EC010E9498
:103A1000FA1CCE01DF91CF910C945D36AF92BF922C
:103A2000CF92DF92EF92FF920F931F93CF93DF938A
:103A30001F92CDB7DEB77C0169836A01590141E06D
:103A400050E0BE016F5F7F4FFC0183810E94EC0755
:103A50008C0197FD0BC0F7018381A501B60180643D
:103A60000E94EC0797FD02C0800F911F0F90DF911D
:103A7000CF911F910F91FF90EF90DF90CF90BF906B
:103A8000AF900895FC01A385B485109719F474874D
:103A9000638709C08D919C911197009711F0DC010B
:103AA000F9CF6D937C9325853685DB0114968D9136
:103AB0009C911597820F931F968785870895809113
:103AC000A00481116BC081E08093930480939404DF
:103AD00029E934E0309396042093950410929804D9
:103AE000109297042BE132E03093900420938F04DE
:103AF00010929B0410929A0410929D0410929C04C0
:103B000080939E0480939F0481EC809399040E948B
:103B10000005FC0121818091930490E0820F911DAA
:103B2000089724F081E08093A00438C0A281B3817B
:103B3000109729F48FE894E0938382830EC018963F
:103B40008D919C911997009711F0DC01F8CF8FE8C7
:103B500094E019969C938E9318978081809391049A
:103B6000818180939204908180919404890F808355
:103B700080E0909193048917A8F6A0919504B091E4
:103B80009604A80FB11D9C91A181B0E0A85FBE4F23
:103B90009C9391819F5F91838F5FEBCF8FE894E03F
:103BA0000895CF93DF93DC01683810F0685825C082
:103BB000E62FF0E067FF12C0E058F10981E090E0E5
:103BC00001C0880FEA95EAF7809514969C911497A6
:103BD000892314968C93149760E00FC0EA53FB4F2F
:103BE0006491662329F167FF08C014968C9114979D
:103BF0008D7F14968C9314976F77FD01369686E02F
:103C0000662321F09081961301C010828150319675
:103C10008111F6CFED010E945F1DAE014C5F5F4F39
:103C200028E030E062E00E940E1D81E090E002C0DA
:103C300080E090E0DF91CF910895CF93DF93DC0196
:103C4000683810F068582DC0E62FF0E067FF11C00B
:103C5000E058F10981E090E001C0880FEA95EAF7A9
:103C600014969C911497892B14968C93149760E06A
:103C700018C0EA53FB4F6491611109C081E090E0E4
:103C800013969C938E93129780E090E046C067FF56
:103C900008C014968C911497826014968C93149794
:103CA0006F7716968C911697861751F117968C910F
:103CB0001797861729F118968C911897861701F196
:103CC00019968C9119978617D9F01A968C911A9794
:103CD0008617B1F01B968C911B97861789F0FD0112
:103CE000369680E090E02191211105C0FD01E80F9A
:103CF000F91F668305C0019686309105A1F7BECFF6
:103D0000ED010E945F1DAE014C5F5F4F28E030E087
:103D100062E00E940E1D81E090E0DF91CF91089556
:103D2000EF92FF921F93CF93DF93EC01162F0E9427
:103D30001D1E7C01612FCE010E94D11DC701992754
:103D4000DF91CF911F91FF90EF9008950C94B833BD
:103D50000C94B03380910D0590910E05892BE9F4F8
:103D600080910B0590910C05892BB9F081E080932F
:103D7000080529E035E03093070520930605809378
:103D8000090510920A059091BC0090649093BC00C4
:103D90008093050510920405089580E008959091A0
:103DA000030591111CC08093E2046093E1044093E9
:103DB000E00483EE94E09093DF048093DE0430937C
:103DC000DD042093DC0481E0809303051092DB0482
:103DD0001092DA041092D9041092D804089580E069
:103DE0000895CF93C82F0E945115811113C090914F
:103DF000D7049093B104C093B2041092B30483E04B
:103E00008093B004C90FC093AF049F5F9093D70411
:103E100081E001C080E0CF910895CF93DF9300D07F
:103E200000D01F92CDB7DEB7E7EFF5E08081898340
:103E3000918182819A838B83938184819C838D83FA
:103E40000E945F1D25E030E0AE014F5F5F4F61E0F3
:103E50000E940E1D0F900F900F900F900F90DF910A
:103E6000CF910895EF92FF920F931F93CF93DF931B
:103E7000CDB7DEB763970FB6F894DEBF0FBECDBFE8
:103E800030917A0620917B0690917C0680917D0688
:103E900039832A839B838C8380917E068D838091D6
:103EA0007F068E83809180069091810697FD0AC0DF
:103EB00068E671E00E9453356DE270E00E94533570
:103EC000262F01C028E0809182069091830697FDFD
:103ED0000AC068E671E00E9453356DE270E00E940E
:103EE0005335962F01C098E030E1939FC001112413
:103EF000822B8F83809171068887898780917206D3
:103F00008A878B87809173068C878D878091740652
:103F10009091750608E611E0B8010E945335BC0186
:103F2000990F880B990B0E945A342DE73FE345E324
:103F30005FE30E94BE340E942934F62E6E87809182
:103F4000760690917706B8010E945335BC01990F0F
:103F5000880B990B0E945A342DE73FE345E35FE35A
:103F60000E94BE340E942934E62E6F878091780625
:103F700090917906B8010E945335BC01990F880BC6
:103F8000990B0E945A342DE73FE345E35FE30E941B
:103F9000BE340E942934688BF98AEA8A6B8B0E94AE
:103FA0005F1D23E130E0AE014F5F5F4F63E00E9491
:103FB0000E1D63960FB6F894DEBF0FBECDBFDF9126
:103FC000CF911F910F91FF90EF900895382F80911E
:103FD0007A0690917B06A0917C06B0917D06209197
:103FE000700661111FC041E050E060E070E004C065
:103FF000440F551F661F771F3A95D2F7409550958D
:104000006095709584239523A623B72380937A0621
:1040100090937B06A0937C06B0937D06222391F0BB
:104020000C94321F41E050E060E070E004C0440FA7
:10403000551F661F771F3A95D2F7842B952BA62B19
:10404000B72BE4CF0895FC018091AE04811103C029
:104050008FEF9FEF08959FB7F89482E08093E90077
:104060002091F20030E01216130614F421E030E043
:104070002115310559F0289884E68093AD0480918C
:10408000F10080838091F200882319F09FBFC9015D
:1040900008958BE68093E800F9CFBC01009791F07A
:1040A000FC0101900020E9F73197AF01481B590B43
:1040B000E0910F05F09110050280F381E02D8FE073
:1040C00095E0099480E090E00895CF9310924D031D
:1040D00021E320934B0710924A07E1EBF5E0E491CE
:1040E00020917B00E3FB882780F990E035E0880F82
:1040F000991F3A95E1F7922F9F7D892B80937B0042
:10410000E770E064E0937C0080917A0080648093A3
:104110007A0080917A0086FDFCCF609178008091D2
:10412000790070E0782B072E000C880B990B611535
:1041300071058105910511F00E94A73310922E039D
:1041400010924C03109231031092320310924B03E1
:104150001092490710924A0310924807109247079D
:1041600010924607109245071092440710923507A7
:10417000109234078FEF9FE7A0E0B0E08093FC053A
:104180009093FD05A093FE05B093FF058093000674
:1041900090930106A0930206B0930306C1E0C0937A
:1041A0000406C09370060E94321F80913C07811163
:1041B00012C010923707109236078DEB95E090935E
:1041C00039078093380788E790E090933B07809306
:1041D0003A07C0933C070E945F1D66E377E00E94A8
:1041E000421D109230031092490310922C0310923A
:1041F0002B0310922A031092290310922803109285
:104200002703109226031092250310922403109284
:104210002303109222031092210310922003109284
:104220001F0310921E0310921D0310921C03109284
:104230001B0310921A031092190310921803109284
:104240001703109216031092150310921403109284
:104250001303109212031092110310921003109284
:104260000F0310920E0310920D0310920C03109284
:104270000B0310920A031092090310920803109284
:104280000703109206031092050310920403109284
:104290000303CF910895CF93DF93EB012091330374
:1042A00021112EC09C01AFEFBFE70E941A3420916C
:1042B000FC053091FD054091FE055091FF050E94DF
:1042C000F8333093F9052093F8059E01AFEFBFE76F
:1042D0000E941A3420910006309101064091020696
:1042E000509103060E94F8333093FB052093FA05A2
:1042F000809104068823F1F0DF91CF910C940D1F7B
:104300006FE770E00E9453356093710680917006EC
:1043100081110E94321FCE016FE770E00E94533579
:104320006093720680917006882321F0DF91CF910F
:104330000C94321FDF91CF910895CF93DF93CDB7C7
:10434000DEB7CA5ED1090FB6F894DEBF0FBECDBF8F
:10435000789484B5826084BD84B5816084BD85B560
:10436000826085BD85B5816085BD80916E0081606C
:1043700080936E0010928100809181008260809312
:104380008100809181008160809381008091800014
:104390008160809380008091910082608093910081
:1043A0008091910081608093910080919000816064
:1043B000809390008091C10084608093C1008091BF
:1043C000C10082608093C1008091C10081608093B0
:1043D000C1008091C30081608093C3008091C000C0
:1043E00082608093C0008091C20081608093C2008F
:1043F00080917A00846080937A0080917A00826054
:1044000080937A0080917A00816080937A00809115
:104410007A00806880937A001092AE041092940221
:10442000109293028091D70081608093D70080EA38
:104430008093D80089B5806189BD89B5826089BDC6
:1044400009B400FEFDCF61E070E080E090E00E94E2
:10445000B2078091D8008F7C80618093D8008091D2
:10446000E000807F8093E0008091E1008E7E809369
:10447000E1008DE08093E200559A209AEEEFFFE78D
:10448000859194918B3F9C4D19F481E08093920229
:104490001DB8239A61E08DE00E94760760E085E018
:1044A0000E94760760E08FE10E94760760E08AE074
:1044B0000E94760760E087E00E94760760E089E06E
:1044C0000E94760760E08DE00E94760760E084E05D
:1044D0000E94760760E08EE10E94760760E08CE043
:1044E0000E94760760E086E00E9476070E940B1427
:1044F0001092FB031092FA031092B00484E08093B0
:1045000009051092D3020E9443151092FC031092E9
:104510004E0383E080939A021092E2021092990275
:10452000109298021092DC021092030510929702EA
:10453000109296021092D4021092D7021092E302C7
:104540001092E002109295021092D9041092DD04AC
:104550001092DC040E9465201092A4021092A30223
:104560001092A2021092A1021092A00210929F0239
:104570001092EE031092ED031092EC031092EB03F5
:104580001092EA0310929E0210929D0210929C02D9
:104590001092E9031092360310929B0210923F048E
:1045A0000E949C08609340047093410480934204ED
:1045B0009093430410924504109250031092EF031D
:1045C00080E48093E10288E893E19093F502809380
:1045D000F40282E390E09093F7028093F60280E287
:1045E0009EE49093F9028093F80284EB90E090931C
:1045F000FB028093FA0288E290E09093FF0280939E
:10460000FE0289E190E0909301038093000380E132
:1046100097E29093FD028093FC0284E6809302036C
:104620001092F3021092F2021092F1028CE290E0EA
:104630009093EA028093E9029093E8028093E70264
:104640008CE494E09093E6028093E5028CEE9FEF79
:104650009093F0028093EF0284E190E09093EE0259
:104660008093ED0285E08093EB028093EC023F980B
:1046700081E08093DC022E0131E1430E511CC12CFC
:10468000D12C7601CA9407EC202E312C2C0E3D1E25
:1046900080E2280E311CE0910D05F0910E05E93104
:1046A000F10508F0AAC2EA5AFF4F0C9467358091D1
:1046B0000505882309F4B0C281E090E090930E05CF
:1046C00080930D051092A60210920505A5C2809157
:1046D000BC00806A8093BC0082E090E099C2809127
:1046E000BC0087FF99C28091B900887F8830D9F4D7
:1046F0008091BC008F758093BC009091A80280913E
:10470000A502880F911105C090910805911101C073
:1047100081608093BB008091BC0080688093BC0066
:1047200083E090E075C28091BC008F758093BC00DF
:104730008091BC0080698093BC0081E190E068C2F8
:104740008091BC0087FF68C28091B900887F883162
:1047500019F0803441F1A1C1809108058823E9F066
:10476000109204058091A802882389F08091F103BA
:104770008093BB008091BC0080688093BC008091D6
:10478000A702882309F44DC086E090E041C28091E1
:10479000F403882309F4F0C0BAC18091BC00806999
:1047A0008093BC0004C080910805882319F080E143
:1047B00090E02EC21092F6038091A802882389F01F
:1047C0008091F1038093BB008091BC00806880934E
:1047D000BC008091A702882309F452C088E090E0D1
:1047E00017C28091F503882309F4C6C08091BC00EC
:1047F00080688093BC0010922504B3C08091BC00F7
:1048000087FF0AC28091B900887F883209F044C0CE
:104810008091F0038093BB008091BC0080688093FE
:10482000BC0085E090E0F4C18091BC0087FFF4C13A
:104830008091B900887F883279F58091F2038823CE
:1048400009F465C18091F4038093BB008091BC00A2
:1048500080688093BC008DE090E0DAC18091BC005C
:1048600087FFDAC18091B900887F8832A9F48091EE
:10487000F0038093BB008091BC0080688093BC00F3
:1048800087E090E0C5C18091BC0087FFC5C18091E1
:10489000B900887F883259F0803309F0FEC08091DA
:1048A000BC0080698093BC0084E190E0B1C180913C
:1048B000BC00806A8093BC008FE090E0A9C1809129
:1048C000BC0087FFA9C18091B900887F803109F0C1
:1048D0004BC08091BC008F758093BC008091A50275
:1048E000880F81608093BB008091BC0080688093BA
:1048F000BC0084E090E08CC18091BC0087FF8CC13B
:104900008091B900887F803479F58091F203882303
:10491000C1F08EE090E090930E0580930D058DC060
:104920008091BC0087FF78C18091B900887F803575
:1049300059F58091BB009091F503891710F480938D
:10494000F5038091F5038823B9F0813029F4809133
:10495000BC008F7B8093BC008091BC0080688093FA
:10496000BC008AE090E054C18091BC0080698093D3
:10497000BC0082E190E04CC18091BC0080698093D2
:10498000BC008CE090E044C18091BC0080698093C1
:10499000BC0086E190E03CC18091BC0087FF3CC137
:1049A0008091B900887F8035F9F0883509F04BC0D7
:1049B0008091BB00E091F703F091F8038083809130
:1049C000BC0080698093BC008091F6038F5F809368
:1049D000F6032CE030E030930E0520930D05E091B6
:1049E0000605F0910705AFC08091BB00E091F70389
:1049F000F091F8038193F093F803E093F70380912B
:104A0000F6038F5F8093F6039091F503292F30E032
:104A1000281B31092130310531F48091BC008F7B96
:104A20008093BC000AC0981308C08091BC008069C4
:104A30008093BC008CE090E011C08091BC00806845
:104A40008093BC00E9C08091BC00809325048091D4
:104A5000BC0080698093BC0087E190E090930E05D4
:104A600080930D05E0910605F09107058091F6030E
:104A70006AC08091BC0087FFCFC08091B900887F59
:104A8000883209F444C0803341F48091BC008069CD
:104A90008093BC0085E190E0BBC08091BC00806940
:104AA0008093BC0083E190E0B3C0E0910B05F091EE
:104AB0000C0580818093BB008091BC00806880934E
:104AC000BC008BE090E0A4C08091BC0087FFA4C034
:104AD0008091B900887F883241F0803319F5809148
:104AE00004058F5F8093040515C0809104058F5FD6
:104AF000809304059091F403891760F480910B056D
:104B000090910C05019690930C0580930B0589E01C
:104B100090E07EC08091BC0080698093BC008CE0F6
:104B200090E007C08091BC0080698093BC0083E165
:104B300090E090930E0580930D05E0910605F091AD
:104B4000070580910405818367C08091B900887F43
:104B5000E0910605F0910705811104C08AE0809379
:104B6000250423C010920E0510920D0584E0808369
:104B700053C0E0910605F091070585E0808382E04F
:104B800043C0E0910605F091070585E0808383E04E
:104B90003BC0E0910605F091070585E0808384E045
:104BA00033C0E0910605F091070585E080832EC0B3
:104BB000E0910605F091070585E0808386E024C03A
:104BC000E0910605F091070585E0808387E01CC031
:104BD000E0910605F091070585E0808388E014C028
:104BE000E0910605F091070585E0808389E00CC01F
:104BF0001092BC000E940B140FC0E0910605F091CA
:104C0000070585E080838BE08093250488E190E0B0
:104C100090930E0580930D05E091FB038E2F90E09D
:104C20008B30910508F0BFC0FC01E159FF4F0C9497
:104C300067358CE20E94F913882309F4BFC082E033
:104C40009BC02091D2028091D0029091D1024091DC
:104C50000D0550910E05452B09F0B0C0009709F4E1
:104C6000ADC090930C0580930B052093F40383E073
:104C700083C09091F90320910D0530910E05232BEF
:104C800009F09CC081E08093F2031092A702809308
:104C9000A8029093F10384E06FC00E94AA1E8823AB
:104CA00009F48CC085E068C080910905843061F00A
:104CB000853009F083C08091AF028F5F8093AF028F
:104CC000843010F08BE058C090910A058091D20298
:104CD000891B8093D2028823A9F080910A059091C4
:104CE000F903890F8093F90320910A058091D0027E
:104CF0009091D102820F911D9093D1028093D002A6
:104D000081E03AC081E08093D3021092FB0356C049
:104D10008CE20E94F913882309F450C081E080934B
:104D2000F30387E029C080910D0590910E05892B32
:104D300009F044C083EF93E090930C0580930B053A
:104D400081E08093F40388E017C080910D05909175
:104D50000E05892B99F581E08093F2031092A7024A
:104D60008093A8028FEF8093F10389E005C00E9431
:104D7000AA1E882319F18AE08093FB031FC080914B
:104D80000905843051F08530C9F48091AF028F5FFE
:104D90008093AF02843008F095CF80910A0581118D
:104DA000B1CF86E0E9CF1092FB031092FA03109284
:104DB000B00484E0809309051092D302E091E402EC
:104DC0008E2F90E08D30910508F0FDC0FC01E65873
:104DD000FF4F0C9467358091AE02882309F4F5C02B
:104DE0008091D302882321F087E08093E40202C0FF
:104DF0001092AD021092AE02E8C087E30E94F91350
:104E0000882309F4E2C082E0D1C02091D2028091CF
:104E1000D0029091D10240910D0550910E05452B85
:104E200009F0D3C0009709F4D0C090930C0580938B
:104E30000B052093F40383E0B9C080910D05909198
:104E40000E05892B09F0C1C01092A80284E0AEC003
:104E50000E94AA1E882309F4B8C085E0A7C08091EB
:104E60000905843061F0853009F0AFC08091AF0250
:104E70008F5F8093AF02843010F08CE097C09091E8
:104E80000A058091D202891B8093D202882371F097
:104E900020910A058091D0029091D102820F911D3C
:104EA0009093D1028093D00281E080C081E0809312
:104EB000D30284C087E30E94F913882309F485C0D4
:104EC00088E074C02091AC028091AA029091AB025C
:104ED00040910D0550910E05452B09F076C00097C5
:104EE00009F473C09093F8038093F7032093F503BC
:104EF00089E05CC080910D0590910E05892B09F029
:104F000064C01092A8028AE051C080910D05909172
:104F10000E05892B09F059C08091F7039091F80391
:104F2000892B09F452C01092080589E095E090930E
:104F300007058093060591E09093090510920A05F4
:104F40008091BC0080648093BC0090930505109212
:104F5000F6038BE02BC080910905843041F0853049
:104F6000A1F58CE08093E4021092AD022EC08091F6
:104F7000AC0290910A059817E0F490910A059111FE
:104F800003C01092A90218C090910A05891B809352
:104F9000AC0220910A058091AA029091AB02820F87
:104FA000911D9093AB028093AA0287E08093E40264
:104FB0000CC081E08093A9021092AD021092E4022D
:104FC00004C00E9443150E94431580914E03823015
:104FD00009F4CCC030F4882359F0813009F4A4C01E
:104FE000F6C0853009F4DAC0863009F4E5C0EFC0B8
:104FF0008091FC0381116CC08091FB038111E7C09B
:105000001092FA031092B00484E20E94C41888231C
:1050100009F4DDC084E00E94C41882E10E94C41833
:1050200085E20E94C41883EB0E94C4188BE00E94A2
:10503000C4188BE90E94C41880E20E94C41883E05F
:105040000E94C41880E00E94C41880E00E94C41826
:1050500080E00E94C41881E00E94C41882E30E948C
:10506000C41881E00E94C41882E30E94C41882E33D
:105070000E94C41880E00E94C41880E00E94C418F6
:1050800084E00E94C41880E00E94C41880E00E945E
:10509000C4188BE40E94C41880E00E94C41883E501
:1050A0000E94C41880E00E94C41882E40E94C418C0
:1050B00080E00E94C41880E20E94C41880E00E9430
:1050C000C41880E00E94C41880E00E94C41815C073
:1050D0008730A8F49091FB03911179C08295880FD5
:1050E000807E8093FA031092B00400E210E080E02A
:1050F0000E94C41801501109D1F781E066C08730C1
:1051000009F043C08091FB03811161C080EE809360
:10511000FA031092B0040FE110E080E00E94C4187E
:1051200001501109D1F7E9CF90910905943009F0A8
:105130004EC09091B004992309F449C02F9A2F983A
:105140009091B0049093D2029091FA039093F90356
:1051500020EB32E03093D1022093D0021092AF02C4
:105160001092D3028093FB0382E02FC08091FB0357
:1051700081112DC08091D302882349F18091FC03D5
:10518000873031F485E080934E031092FC031FC0FA
:105190008F5F8093FC0310924E0319C08091090524
:1051A0008430A9F48091B004882389F01092D3024E
:1051B00086E08093FB0309C08091FB03811107C047
:1051C0008091D302882319F083E080934E030E94DC
:1051D000E41510914D03113099F028F0133009F4C3
:1051E00086C00C947B3180914E03833011F00C9477
:1051F0007D318FEF9FEF90931C0580931B0573C744
:105200008FE095E00E94E403079714F40C947D313D
:1052100010933D048FE095E00E94250480933C04A8
:105220008A3A29F08AEF80933B040C947D318FE019
:1052300095E00E94250480933B048FE095E00E9456
:105240002504A82E8093390490933A048FE095E0CA
:105250000E9425048C0190933804809337048FE0DA
:1052600095E00E942504B82E80933504909336046F
:105270008FE095E00E9425049093340480933304DA
:10528000C851DF4FA882C85ED040C951DF4F188295
:10529000C75ED040C951DF4FE881F981C75ED04079
:1052A0000E0F1F1F1093320400933104C651DF4FBD
:1052B000B882CA5ED040C751DF4F1882C95ED04065
:1052C000C751DF4F28813981C95ED040280F391F6F
:1052D0003093300420932F048FE095E00E94250442
:1052E00080932E048B3B09F09DCF83E0FDC6E091B7
:1052F0003B048E2F90E0FC01B897EF38F10508F0E1
:10530000F2C6E957FF4F0C94673510924C03EBC679
:1053100081E080934C03E8C681E080932D04E4C6CD
:1053200010922D04E0C681E080934B03DDC61092FD
:105330004B03D9C681E080934A03D6C610924A0334
:10534000D2C680912F0490913004E0913104F09105
:105350003204E456F109E932F10508F0C4C6EA5E08
:10536000FE4F0C94673590932C0380932B03BBC6A0
:1053700090932A0380932903B6C6909328038093C1
:105380002703B1C69093260380932503ACC6909360
:10539000240380932303A7C69093220380932103C1
:1053A000A2C69093200380931F039DC690931E0373
:1053B00080931D0398C690931C0380931B0393C690
:1053C00090931A03809319038EC6909316038093CB
:1053D000150389C6909314038093130384C6909396
:1053E0001203809311037FC69093100380930F03E1
:1053F0007AC690930E0380930D0375C690930C03A9
:1054000080930B0370C690930A03809309036BC6C5
:10541000909308038093070366C6909306038093D6
:10542000050361C690932404809323045CC6909383
:1054300022048093210457C69093200480931F0474
:1054400052C690931E0480931D044DC690931C0475
:1054500080931B0448C690931A048093190443C692
:1054600090931804809317043EC69093160480937B
:10547000150439C6909314048093130434C6909392
:105480001204809311042FC69093100480930F048C
:105490002AC690930E0480930D0425C690930C04A5
:1054A00080930B0420C690930A04809309041BC6C2
:1054B000909308048093070416C690930604809383
:1054C000050411C690930404809303040CC69093C2
:1054D00002048093010407C6909300048093FF03A5
:1054E00002C69093FE038093FD03FDC590931803BD
:1054F00080931703F8C581E792E00E944D2085E86C
:1055000092E00E944D20EFC561E08FE095E00E949F
:10551000BE0369E0C7C50AE010E0C8010E94A81EEA
:10552000682F8FE095E00E94BE030F5F1F4F093187
:10553000110599F7D8C5809131049091320460919A
:105540002F040A96C2C080E090E00E94A81E682F37
:105550008FE095E00E94BE0381E090E0E8C082E029
:1055600090E00E94A81E682F8FE095E00E94BE0385
:1055700083E090E0DCC06091390480E090E00E941C
:10558000A61E6091370481E090E00AC06091390462
:1055900082E090E00E94A61E6091370483E090E0D4
:1055A0000E94A61E06C18EE190E00E94A81E682FF0
:1055B0008FE095E00E94BE038FE190E00E94A81E5C
:1055C000682F8FE095E00E94BE0380E290E00E9489
:1055D000A81E682F8FE095E00E94BE0381E290E054
:1055E0000E94A81E682F8FE095E00E94BE0382E211
:1055F00090E00E94A81E682F8FE095E00E94BE03F5
:1056000083E290E00E94A81E682F8FE095E00E9440
:10561000BE0384E290E00E94A81E682F8FE095E010
:105620000E94BE0385E290E00E94A81E682F8FE0D2
:1056300095E00E94BE0386E290E00E94A81E682FBB
:105640008FE095E00E94BE0387E290E070C08091F9
:105650003104909132048A30910508F044C560917C
:105660002F044E9632C089E190E00E94A81E682F58
:105670008FE095E00E94BE038AE190E00E94A81EA0
:10568000682F8FE095E00E94BE038BE190E00E94BE
:10569000A81E682F8FE095E00E94BE038CE190E089
:1056A0000E94A81E682F8FE095E00E94BE038DE146
:1056B00090E03DC080913104909132048530910595
:1056C00008F011C560912F0449960E94A61E0BC5D3
:1056D00088E290E00E94A81E682F8FE095E00E946B
:1056E000BE0389E290E00E94A81E682F8FE095E03B
:1056F0000E94BE038AE290E00E94A81E682F8FE0FD
:1057000095E00E94BE038BE290E00E94A81E682FE5
:105710008FE095E00E94BE038CE290E00E94A81EFC
:10572000682F8FE095E00E94BE038DE290E00E941A
:10573000A81EB7C48091310490913204863091053F
:1057400008F0D1C460912F048896BFCF80913104B6
:10575000909132048A34910509F0C5C480912F04D8
:1057600090913004803C910509F0BDC402E310E043
:10577000C8010E94A81E682F8FE095E00E94BE031A
:105780000F5F1F4F0235110599F7ADC480913104A9
:10579000909132048032910508F0A5C460912F04E5
:1057A000C29693CF1092DC029EC480914903882355
:1057B00011F061E077C460E075C45E01F1E2AF0E04
:1057C000B11C80E6EDE1F1E0DE01119601900D9251
:1057D0008A95E1F78E010F5F1F4F0E94A233A70148
:1057E00096010E94C633F80161938F0167E070E073
:1057F00080E090E00E94B2070415150571F7820160
:105800000E949C08A70196010E94F833F801619359
:105810008F016BE070E080E090E00E94B2070A1513
:105820001B0571F7E0910506F09106060084F185ED
:10583000E02D85E096E00995E0910506F0910606D9
:105840000284F385E02D40E650E0BE016F5F7F4F9C
:1058500085E096E00995E0910506F091060604843E
:10586000F585E02D40E250E0BE0169537F4F85E0B1
:1058700096E0099586E4EEE7F1E0DE01AF59BF4F0F
:1058800001900D928A95E1F78E0109531F4F9E01F9
:105890002F593F4F39010215130571F04801F801E6
:1058A00061918F018FE095E00E94BE03F401808139
:1058B000F30181933F01EFCF8FE095E00E94E40375
:1058C00080973CF46AE070E080E090E00E94B207CC
:1058D000F3CF8E0109551F4F8FE095E00E94E4033E
:1058E000892B41F08FE095E00E942504F801819317
:1058F0008F01F2CFE0910506F09106060084F18554
:10590000E02D85E096E00995E0910506F091060608
:105910000284F385E02D40E450E0BE016F597F4FD3
:1059200085E096E00995E0910506F091060604846D
:10593000F585E02D40E250E0BE0169537F4F85E0E0
:1059400096E0099540E250E0BE0169557F4FCE01D7
:1059500089539F4F0E94FA36892B79F088E892E0AC
:105960000E944D2086E892E00E944D2064E670E09F
:1059700080E090E00E94B20724CF8DE892E00E9480
:105980004D2086E892E00E944D2081E080934903FB
:10599000ABC3109107016AE070E080E090E00E94E4
:1059A000B2071123B1F38FE095E00E94E4038097E2
:1059B0003CF46AE070E080E090E00E94B207F3CF30
:1059C00089E4E5ECF1E0DE01119601900D928A95F3
:1059D000E1F78E010F5F1F4F5E01F1E2AF0EB11CC8
:1059E000909007016AE070E080E090E00E94B207CA
:1059F0009920B1F38FE095E00E942504F80181938E
:105A00008F01EA15FB0561F7E0910506F0910606A6
:105A10000084F185E02D85E096E00995E09105068A
:105A2000F09106060284F385E02D49E450E0BE01C2
:105A30006F5F7F4F85E096E00995E0910506F09154
:105A400006060484F585E02D40E250E0BE016F5962
:105A50007F4F85E096E009959E012F593F4F5901F0
:105A60008901005E1F4FF50161915F018FE095E0B4
:105A70000E94BE03A016B106B1F735C380912C0475
:105A800081110DC081E080932C040E949C086093DA
:105A900028047093290480932A0490932B04809106
:105AA000BC000E94C315892B21F06BE080E00E94AE
:105AB000D415609128047091290480912A04909152
:105AC0002B04A70196010E94C63370E07093D602A2
:105AD0006093D50211E01093D40284E490E0909397
