:100000000C949E020C94C6020C94C6020C94C60278
:100010000C94C6020C94C6020C94C6020C94C60240
:100020000C94C6020C94C6020C9490170C941F19E1
:100030000C94DC120C94C6020C94C6020C94C602FA
:100040000C94C6020C94C6020C94C6020C94C60210
:100050000C94C6020C94C6020C94C6020C94921224
:100060000C94C6020C94C6020C94C6020C94C602F0
:100070000C94C6020C94C6020C94C6020C94C602E0
:100080000C94C6020C94C6020C94C6020C94C602D0
:100090000C94C6020C94C6020C94C6020C94C602C0
:1000A0000C94C6020C94C6020C94C602401D501D4E
:1000B000581D891D641EFD1DE71D2C1E171E691F7E
:1000C000C01E7A1FBD1F4B1F871E481E0D20D71F45
:1000D000DF1FFD1F1D202D20E71FEF1F3D202421C6
:1000E0005F2067207F2093209A20CE20D920EB200C
:1000F000FD200521312143214B2163216E217521F2
:100100002922A021A821C021CB21F12127224D2382
:10011000542359238E2396231624592485248D2471
:100120009524A224BB24C1249823A4231D24402465
:100130006724B423F623F402F702E602EA02EE0291
:10014000180318031803FB02FF02030309030D033E
:1001500018031303C109270A270A270A270A270AAF
:10016000270A270A730576057A057E058105850528
:1001700088058C05270A270A270A270A8F05270AD8
:10018000270A270A270A270A270A270A270A270AE7
:10019000270A270A270A270A270A270A270A270AD7
:1001A000270A270A270A270A270A270A270A270AC7
:1001B000270A270A270A270A270A270A270A270AB7
:1001C000270A270A270A270A270A270A6906720622
:1001D0007906890691069D06A906B4069C07A8071C
:1001E000A408C10615072107480756078907270AEB
:1001F000270A950799071909A105A605AB05B005BA
:10020000B505BA05BF05C405C905CE05D305D80592
:10021000DD05E205E705EC05F105F605FB05000641
:1002200005060A060F06140619061E0623062806EA
:100230002D06320637063C06410646064B0650069A
:1002400055065A065F066406070605040100080AFB
:100250000B0C0D09000000002300260029002C00D3
:100260002F000000000200090F0000030401000C31
:10027000000000000000000000000000000000007E
:100280000000000000000000002A2B2800000000F1
:10029000000000000000000000000000000000005E
:1002A000002C9EB4A0A1A2A434A6A7A5AE362D37DB
:1002B00038271E1F20212223242526B333B62EB72C
:1002C000B89F8485868788898A8B8C8D8E8F909144
:1002D00092939495969798999A9B9C9D2F3130A3D1
:1002E000AD350405060708090A0B0C0D0E0F101199
:1002F00012131415161718191A1B1C1DAFB1B0B51F
:1003000000982F8A4291443771CFFBC0B5A5DBB569
:10031000E95BC25639F111F159A4823F92D55E1CB6
:10032000AB98AA07D8015B8312BE853124C37D0C2C
:1003300055745DBE72FEB1DE80A706DC9B74F19B36
:10034000C1C1699BE48647BEEFC69DC10FCCA10C1D
:10035000246F2CE92DAA84744ADCA9B05CDA88F9F0
:100360007652513E986DC631A8C82703B0C77F5951
:10037000BFF30BE0C64791A7D55163CA0667292989
:1003800014850AB72738211B2EFC6D2C4D130D3810
:100390005354730A65BB0A6A762EC9C281852C72D2
:1003A00092A1E8BFA24B661AA8708B4BC2A3516CF6
:1003B000C719E892D1240699D685350EF470A06A43
:1003C0001016C1A419086C371E4C774827B5BCB06D
:1003D00034B30C1C394AAAD84E4FCA9C5BF36F2E1B
:1003E00068EE828F746F63A5781478C8840802C79A
:1003F0008CFAFFBE90EB6C50A4F7A3F9BEF27871B3
:10040000C600000000250028002B002E003100004F
:10041000000000240027002A002D003000040404FE
:10042000040403040502020202040302020202069B
:100430000606060606040402020204040504080275
:10044000011040804010204080408008020401805C
:1004500040201002011080102040402004080B00B2
:10046000020202010009040000010202000005244A
:1004700000100105240101010424020605240600E0
:10048000010705810310004009040100020A000071
:100490000007050202400000070583024000000437
:1004A00003090412010002EF020140C016390F00D7
:1004B0000101020301556E6B6E6F776E0053696E1A
:1004C00064656E4C6967687467756E00050109069E
:1004D000A1018502050719E029E71500250175012D
:1004E0009508810295017508810395067508150028
:1004F00025650507190029658100C005010902A1CC
:10050000010901A10085010509190129031500252B
:1005100001950375018102950175058103050109A6
:1005200030093116000026FF7F36000046FF7F7538
:100530001095028102C0C000B7289B2811241FBE5D
:10054000CFEFDAE0DEBFCDBF12E0A0E0B1E0E4E043
:10055000F9E502C005900D92A239B107D9F726E05E
:10056000A2E9B2E001C01D92A839B207E1F712E09A
:10057000CDE9D2E004C02197FE010E94C52ACC3902
:10058000D107C9F70E94F71B0C94752C0C9400003E
:10059000FC01218530E0F901EE59FD4F8491F9010C
:1005A000E35CFB4F4491F901E35EFB4F249122236E
:1005B00009F44AC08823E1F190E0FC013197EF3063
:1005C000F105B0F5E556FF4F0C94C52A80918000E7
:1005D0008F7707C0809180008F7D03C0809180005D
:1005E000877F8093800024C084B58F7702C084B554
:1005F0008F7D84BD1DC0809190008F7707C0809152
:1006000090008F7D03C080919000877F8093900041
:100610000FC08091C0008F7703C08091C0008F7D94
:100620008093C00005C08091C200877F8093C20084
:10063000E22FF0E0EE0FFF1FEC5AFD4FA591B491B1
:10064000EC914E2381E009F480E081700895862FBB
:10065000642F0C9410120C94402A0C94382A809128
:100660008A039091890391118C5F90918803911175
:100670008E5F282F30E040912304509124042417EA
:10068000350759F030932404209323048093DF042A
:100690008091EC0481110C944F1B08959C012D5FF7
:1006A00031092330310568F48F3F910579F021E05D
:1006B0008E3F910519F420938C0315C020938B0372
:1006C00012C08B3F910531F41092870321E02093F3
:1006D0008D0309C08A3F910531F410928603109270
:1006E0008D0310928B039C01205231092B3B310565
:1006F00028F4682F83ED94E00C94591508958C3FED
:10070000910539F43091220421E02327209322041B
:100710000DC08B3F910521F421E02093870306C093
:100720008A3F910519F421E0209386039C012D5FF7
:1007300031092330310578F421E08F3F910519F418
:100740002093900308C08E3F910519F420938F03E6
:1007500002C020938E039C01205231092B3B3105AE
:1007600030F4682F83ED94E00E94A5151DC0893FE9
:100770009105D1F462E883ED94E00E94A51562E64C
:1007800083ED94E00E94A51562E370E080E090E0C4
:100790000E944C1262E683ED94E00E94591562E8D3
:1007A00083ED94E00E94591581E08093210408951F
:1007B0000F931F93CF93DF9300D000D0CDB7DEB758
:1007C0008C0183E192E0F80191838083128213828D
:1007D000148215828AE090E0978386831086618771
:1007E000C80129833A834B835C830E94C802298114
:1007F0003A814B815C81882321F0F80180858360F8
:10080000808729833A834B835C830E948612F80198
:10081000628373838483958329813A813783268316
:100820000F900F900F900F90DF91CF911F910F912C
:1008300008951092200421E32093DB031092DA0341
:10084000E8E4F2E0E49120917B00E3FB882780F963
:1008500090E035E0880F991F3A95E1F7922F9F7D40
:10086000892B80937B00E770E064E0937C008091AB
:100870007A00806480937A0080917A0086FDFCCFB4
:10088000609178008091790070E0782B072E000C41
:10089000880B990B611571058105910511F00E9476
:1008A0002F2A1092850310920F04109222041092A6
:1008B000840310920E041092D90310920D0410922A
:1008C000D8031092D7031092D6031092D50310923A
:1008D000D40310922404109223048FEF9FE7A0E02A
:1008E000B0E08093E4049093E504A093E604B09311
:1008F000E7048093E8049093E904A093EA04B0939A
:10090000EB0481E08093EC041092210410920C041B
:1009100010925F0310925E0310927B0310927A0391
:100920001092730310927203109283031092820349
:1009300010927F0310927E0310926F0310926E0349
:1009400010926B0310926A03109267031092660371
:100950001092630310926203109277031092760351
:1009600010925D0310925C03109279031092780349
:100970001092710310927003109281031092800301
:1009800010927D0310927C0310926D0310926C0301
:100990001092690310926803109265031092640329
:1009A0001092610310926003109275031092740309
:1009B00008952F923F924F925F926F927F928F9203
:1009C0009F92AF92BF92CF92DF92EF92FF920F93DE
:1009D0001F93CF93DF93CDB7DEB7C65ED1090FB6B5
:1009E000F894DEBF0FBECDBF10912004113089F006
:1009F00020F0133009F469C02EC580915B03833069
:100A000009F030C58FEF9FEF9093900480938F048F
:100A10001EC583E894E00E94321707970CF422C5A4
:100A200010931F0483E894E00E944E1780931E04E5
:100A30008A3A21F08AEF80931D0414C583E894E07C
:100A40000E944E1780931D0483E894E00E944E1785
:100A5000E82E80931B0490931C0483E894E00E948A
:100A60004E178C0190931A048093190483E894E044
:100A70000E944E17F82E809317049093180483E871
:100A800094E00E944E17909316048093150440E062
:100A900050E05E2D040F151F1093140400931304EF
:100AA00040E050E05F2D9A01280F391F3093120467
:100AB0002093110483E894E00E944E178093100461
:100AC0008B3B09F0B7CF83E0C3C4E0911D048E2FA8
:100AD00090E0FC01B897E235F10508F0B8C4E6559E
:100AE000FF4F0C94C52A10920F04B1C481E080938B
:100AF0000F04AEC481E080938503AAC410928503DD
:100B0000A6C481E080930E04A3C410920E049FC477
:100B100081E080930D049CC410920D0498C48091D0
:100B2000110490911204E0911304F0911404E4561E
:100B3000F109E832F10508F08AC4E450FF4F0C9443
:100B4000C52A90935F0380935E0381C490937B03D7
:100B500080937A037CC4909373038093720377C469
:100B6000909383038093820372C490937F03809356
:100B70007E036DC490936F0380936E0368C490935B
:100B80006B0380936A0363C4909367038093660347
:100B90005EC4909363038093620359C49093770378
:100BA0008093760354C490935D0380935C034FC499
:100BB00090937903809378034AC490937103809350
:100BC000700345C4909381038093800340C4909345
:100BD0007D0380937C033BC490936D0380936C03EF
:100BE00036C4909369038093680331C4909365037E
:100BF000809364032CC4909361038093600327C4A3
:100C0000909375038093740322C49093030480939C
:100C100002041DC4909301048093000418C49093AF
:100C2000FF038093FE0313C49093FD038093FC03A2
:100C30000EC49093FB038093FA0309C49093F903C5
:100C40008093F80304C49093F7038093F603FFC3E3
:100C50009093F5038093F403FAC39093F303809386
:100C6000F203F5C39093F1038093F003F0C39093E4
:100C7000EF038093EE03EBC39093ED038093EC03BB
:100C8000E6C39093EB038093EA03E1C39093E903F7
:100C90008093E803DCC39093E7038093E603D7C314
:100CA0009093E5038093E403D2C39093E30380938E
:100CB000E203CDC39093E1038093E003C8C3909314
:100CC000DF038093DE03C3C39093DD038093DC03D3
:100CD000BEC381E792E00E949E1B85E892E00E94DD
:100CE0009E1BB5C361E083E894E00E940C1763E0AB
:100CF0002AC10AE010E0C8010E942D03682F83E892
:100D000094E00E940C170F5F1F4F0931110599F7EE
:100D10009EC38091130490911404609111040A966B
:100D2000C2C080E090E00E942D03682F83E894E029
:100D30000E940C1781E090E0E8C082E090E00E9401
:100D40002D03682F83E894E00E940C1783E090E065
:100D5000DCC060911B0480E090E00E942B03609156
:100D6000190481E090E00AC060911B0482E090E0E9
:100D70000E942B036091190483E090E00E942B03F2
:100D8000DFC08EE190E00E942D03682F83E894E09D
:100D90000E940C178FE190E00E942D03682F83E8DA
:100DA00094E00E940C1780E290E00E942D03682FCF
:100DB00083E894E00E940C1781E290E00E942D03EA
:100DC000682F83E894E00E940C1782E290E00E9472
:100DD0002D03682F83E894E00E940C1783E290E0D3
:100DE0000E942D03682F83E894E00E940C1784E290
:100DF00090E00E942D03682F83E894E00E940C1776
:100E000085E290E00E942D03682F83E894E00E9421
:100E10000C1786E290E00E942D03682F83E894E08F
:100E20000E940C1787E290E070C0809113049091AB
:100E300014048A30910508F00AC3609111044E969B
:100E400032C089E190E00E942D03682F83E894E08E
:100E50000E940C178AE190E00E942D03682F83E81E
:100E600094E00E940C178BE190E00E942D03682F04
:100E700083E894E00E940C178CE190E00E942D031F
:100E8000682F83E894E00E940C178DE190E03DC04C
:100E900080911304909114048530910508F0D7C215
:100EA0006091110449960E942B03D1C288E290E020
:100EB0000E942D03682F83E894E00E940C1789E2BA
:100EC00090E00E942D03682F83E894E00E940C17A5
:100ED0008AE290E00E942D03682F83E894E00E944C
:100EE0000C178BE290E00E942D03682F83E894E0BA
:100EF0000E940C178CE290E00E942D03682F83E87B
:100F000094E00E940C178DE290E00E942D03682F60
:100F10001AC080911304909114048630910508F052
:100F200096C2609111048896BECF81E080935903E8
:100F30008FC2109259038BC280910C04882311F048
:100F400061E001C060E083E894E00E940C177FC27A
:100F50007E0121E1E20EF11C412C512C32014A9418
:100F60001E0161E2260E311C27ECA22EB12CAC0E24
:100F7000BD1E70E2A70EB11C80E6EDE1F1E0DE01DE
:100F8000119601900D928A95E1F78E010F5F1F4F28
:100F90000E942A2AA30192010E944E2AF80161931D
:100FA0008F0167E070E080E090E00E944C120E1527
:100FB0001F0571F787010E948612A30192010E940A
:100FC000802AF80161938F016BE070E080E090E08F
:100FD0000E944C120215130571F7E0917905F0910A
:100FE0007A050084F185E02D89E795E00995E09187
:100FF0007905F0917A050284F385E02D40E650E012
:10100000BE016F5F7F4F89E795E00995E091790513
:10101000F0917A050484F585E02D40E250E0BE01B0
:1010200069537F4F89E795E0099586E4EEE7F1E0A3
:10103000DE01AF59BF4F01900D928A95E1F78E0105
:1010400009531F4FBE016F597F4F6B010A151B05D6
:1010500071F04801F80161918F0183E894E00E94EA
:101060000C17F4018081F60181936F01EFCF83E8C3
:1010700094E00E94321780973CF46AE070E080E0D0
:1010800090E00E944C12F3CF8E0109551F4F83E868
:1010900094E00E943217892B41F083E894E00E948B
:1010A0004E17F80181938F01F2CFE0917905F0910D
:1010B0007A050084F185E02D89E795E00995E091B6
:1010C0007905F0917A050284F385E02D40E450E043
:1010D000BE016F597F4F89E795E00995E091790549
:1010E000F0917A050484F585E02D40E250E0BE01E0
:1010F00069537F4F89E795E0099540E250E0BE01D2
:1011000069557F4FCE0189539F4F0E94582C892BE0
:1011100079F088E892E00E949E1B86E892E00E94A7
:101120009E1B64E670E080E090E00E944C1224CFA9
:101130008DE892E00E949E1B86E892E00E949E1B32
:1011400081E080930C0484C1109112016AE070E088
:1011500080E090E00E944C121123B1F383E894E008
:101160000E94321780973CF46AE070E080E090E0E3
:101170000E944C12F3CF89E4E5ECF1E0DE01119618
:1011800001900D928A95E1F78E010F5F1F4F7E014E
:10119000F1E2EF0EF11CD09012016AE070E080E005
:1011A00090E00E944C12DD20B1F383E894E00E94AD
:1011B0004E17F80181938F01EE15FF0561F7E0915D
:1011C0007905F0917A050084F185E02D89E795E0B5
:1011D0000995E0917905F0917A050284F385E02D77
:1011E00049E450E0BE016F5F7F4F89E795E00995C4
:1011F000E0917905F0917A050484F585E02D40E2CF
:1012000050E0BE016F597F4F89E795E009958E0147
:101210000F591F4F7801F0E2EF0EF11CF8016191B8
:101220008F0183E894E00E940C170E151F05B1F79B
:101230000EC180910B0481110DC081E080930B04DD
:101240000E94861260930704709308048093090437
:1012500090930A048091BC008091550381110AC0CB
:10126000109254038BE08093C70281E08093550372
:101270001092C602609107047091080480910904DD
:1012800090910A042FEF30E040E050E00E944E2A97
:10129000F62E862F90E09093C5028093C40281E0E1
:1012A0008093570324E430E03093C3022093C202BA
:1012B00080935603809359031091D202812F0E948C
:1012C0000714811108C031E020E0111101C030E0A5
:1012D000832F922F02C081E090E04F2D4F70242F7A
:1012E00030E0BC0102C0660F771F4A95E2F73195E6
:1012F000219531092F7033278C0102C0169507956F
:101300002A95E2F7062B172B8FEF800F0E94071408
:10131000080F111DF2948FE0F8228F2D90E09801B4
:1013200002C0220F331FFA94E2F79195819591093B
:101330008F70992702C0169507958A95E2F7022BC0
:10134000132B802F0E94071470E4879F000D111D3E
:1013500011248091C1020E94071494E489278B5BB9
:10136000982F9127909305048095082700930404F3
:101370008091CE0208136BC08091CF02981367C092
:101380006DC080910C04882309F461C0109284031D
:1013900080910E04811104C080910D04882399F07E
:1013A000809113049091140401978E3F9F4740F45D
:1013B000809111049091120401978E3F9F4718F07D
:1013C00081E08093840380910F04811140C080915B
:1013D0002204882321F0809121048823C1F1809187
:1013E00006048823A1F110922104009111041091A8
:1013F00012042091130430911404AFEFBFE70E9450
:10140000A22A2091E4043091E5044091E604509131
:10141000E7040E94802A3093E1042093E0049801BD
:10142000AFEFBFE70E94A22A2091E8043091E904BF
:101430004091EA045091EB040E94802A3093E30427
:101440002093E2048091EC0481110E944F1B81E003
:101450008093200407C00E94190404C081E0809397
:101460000604F5CFCA51DF4F0FB6F894DEBF0FBEAA
:10147000CDBFDF91CF911F910F91FF90EF90DF9043
:10148000CF90BF90AF909F908F907F906F905F9024
:101490004F903F902F9008953FB7F8948091480463
:1014A00090914904A0914A04B0914B0426B5A89BA1
:1014B00005C02F3F19F00196A11DB11D3FBFBA2FE6
:1014C000A92F982F8827820F911DA11DB11DBC0146
:1014D000CD0142E0660F771F881F991F4A95D1F70B
:1014E00008952F923F924F925F926F927F928F92C8
:1014F0009F92AF92BF92CF92DF92EF92FF920F93A3
:101500001F93CF93DF93CDB7DEB7CC54D1090FB67D
:10151000F894DEBF0FBECDBF2D969FAF8EAF2D9737
:101520001C0102E2200E311C8E599F4F988F8F8B29
:10153000F10160817181828193810E94CB2A619344
:101540007193819391932F89388DE217F30789F76F
:101550002D96AEADBFAD2D9712964D915D916D91CB
:101560007C9115974FA358A769A77AA716964D9017
:101570005D906D907C9019974BA65CA66DA67EA69B
:101580001A964D905D906D907C901D974FA658AA2D
:1015900069AA7AAA1E964D905D906D907C905197A5
:1015A0004BAA5CAA6DAA7EAA52964D905D906D9052
:1015B0007C9055974FAA58AE69AE7AAE56964D902C
:1015C0005D906D907C9059974BAE5CAE6DAE7EAEEB
:1015D0005A964D905D906D907C905D9723964CAEA1
:1015E0005DAE6EAE7FAE23975E964D905D906D9032
:1015F0007C90919727964CAE5DAE6EAE7FAE2797EE
:1016000001E013E01E8B0D8B7301620123962CAD5C
:101610003DAD4EAD5FAD23972F8F38A349A35AA39D
:101620004BAD5CAD6DAD7EAD498B5A8B6B8B7C8BBE
:101630006FA978AD89AD9AAD6D837E838F839887CE
:101640008BA99CA9ADA9BEA98BA39CA3ADA3BEA346
:101650004FA458A869A87AA84B8E5C8E6D8E7E8E9A
:101660006BA47CA48DA49EA469867A868B869C86B6
:101670008FA098A4A9A4BAA489829A82AB82BC82C2
:10168000ED89FE890591159125913491D1014D90F7
:101690005D906D907D901D014D815E816F8178859B
:1016A000B62F672F742F452F5B2F400E511E621EE1
:1016B000731E0D811E812F81388500951095209510
:1016C00030958F8C98A0A9A0BAA0082119212A21B1
:1016D0003B2189889A88AB88BC888D819E81AF81A7
:1016E000B88588229922AA22BB22082519252A25F5
:1016F0003B25040D151D261D371D2A013B01440CF9
:10170000551C661C771C411C440C551C661C771C20
:10171000411C4C015D018B2CBA2CA92C982E80FA0F
:10172000B794A79497948794B7F884249524A62413
:10173000B7242A013B0140FA779467945794479461
:1017400077F840FA779467945794479477F840FA7B
:10175000779467945794479477F884249524A62423
:10176000B724800E911EA21EB31EC80CD91CEA1C01
:10177000FB1C09811A812B813C81A02F032F322F62
:10178000212F1A2F000F111F221F331F011DD901F6
:10179000C801880F991FAA1FBB1F811D49815A814B
:1017A0006B817C8140FB779567955795479577F9D5
:1017B00040FB779567955795479577F98C019D0183
:1017C000042715272627372749815A816B817C8179
:1017D000FA01AB01BF01440F551F661F771F411D62
:1017E000440F551F661F771F411DDB01CA01880F7B
:1017F000991FAA1FBB1F811DB901A801482759279E
:101800006A277B278B8C9C8CAD8CBE8C49845A8438
:101810006B847C8484249524A624B72409811A81AE
:101820002B813C8180229122A222B3220B8D1C8D20
:101830002D8D3E8D042115212621372108251925BE
:101840002A253B25400F511F621F731F8BA19CA1AE
:10185000ADA1BEA18C0D9D1DAE1DBF1D8D879E87A8
:10186000AF87B88BDB01CA018C0D9D1DAE1DBF1D5E
:101870000D891E890C5F1F4F1E8B0D8B2B8D3C8D90
:101880004D8D5E8D2BA33CA34DA35EA3CF8CD8A022
:10189000E9A0FAA04F89588D2416350669F1098907
:1018A0001A892B893C890F8F18A329A33AA32D816C
:1018B0003E814F815885298B3A8B4B8B5C8B4D85B4
:1018C0005E856F8578894D835E836F8378874984D1
:1018D0005A846B847C844B8E5C8E6D8E7E8E698088
:1018E0007A808B809C8069867A868B869C868983A9
:1018F0009A83AB83BC83C4CE61E473E07E8B6D8B33
:1019000022242394312CF101EF70FF273896EE0F3B
:10191000FF1FEE0FFF1F2D96EEACFFAC2D97EE0DC7
:10192000FF1D0281138124813581F1013D96EF7005
:10193000FF273896EE0FFF1FEE0FFF1FEE0DFF1D66
:10194000C280D380E480F5804FE0420DE42FEF7039
:10195000B601A7013A014B0160FA979487947794F6
:10196000679497F82B966CAE7DAE8EAE9FAE2B979C
:101970002D966EAD7FAD2D9744E0E49F600D711DF7
:101980001124FB01B096F88FEF8BF1013896EF70C0
:10199000FF273896EE0FFF1FEE0FFF1F2D964EAD5F
:1019A0005FAD2D974E0F5F1FEF89F88D42805380FA
:1019B00064807580FA0182809380A480B580840C55
:1019C000951CA61CB71C702E412E522E632EB301FF
:1019D000A201440F551F661F771F411D28013901C1
:1019E000E3E07694679457944794EA95D1F74426B8
:1019F000552666267726B80189019B0100FB37959D
:101A000027951795079537F900FB37952795179573
:101A1000079537F94026512662267326480C591C33
:101A20006A1C7B1CFAE0F694E794D794C794FA9565
:101A3000D1F72B968CAC9DACAEACBFAC2B97C82429
:101A4000D924EA24FB2480FAB794A7949794879426
:101A5000B7F880FAB794A79497948794B7F88C2432
:101A60009D24AE24BF24840C951CA61CB71CEF89B2
:101A7000F88D82829382A482B5826D897E89FB0172
:101A800045905590659074904F8A588E698E7A8EE5
:101A90000D851E852F853889F22F232F302F012F9A
:101AA0001F2F4D855E856F8578894095509560958F
:101AB000709549885A886B887C8844215521662115
:101AC00077214D805E806F807884CD84DE84EF84C2
:101AD000F8884C205D206E207F206A017B01C424A1
:101AE000D524E624F7244F89588D698D7A8DC40E4C
:101AF000D51EE61EF71E28013901440C551C661C34
:101B0000771C411C440C551C661C771C411C4D85E0
:101B10005E856F857889E42F472F762F652F5E2F9E
:101B200040FB779567955795479577F94425552557
:101B3000662577252801390140FA779467945794F0
:101B4000479477F840FA779467945794479477F8D6
:101B500040FA779467945794479477F8442555252D
:101B6000662577254C0D5D1D6E1D7F1D840E951E0F
:101B7000A61EB71E4F8C58A069A07AA0840C951C95
:101B8000A61CB71CD82EE92EFA2ECB2ECC0CDD1CB1
:101B9000EE1CFF1CC11C97018601000F111F221FA4
:101BA000331F011DAC01BD0140FB7795679557952B
:101BB000479577F940FB779567955795479577F95E
:101BC00068017901C426D526E626F726BC01AD01B9
:101BD000440F551F661F771F411D440F551F661F79
:101BE000771F411D8A019B01000F111F221F331F08
:101BF000011DB701A6014027512762277327C98419
:101C0000DA84EB84FC8409811A812B813C81C02613
:101C1000D126E226F326C822D922EA22FB22098510
:101C20001A852B853C8549805A806B807C800421F5
:101C30001521262137210C251D252E253F25400F56
:101C4000511F621F731F4B8C5C8C6D8C7E8C480CFB
:101C5000591C6A1C7B1C480D591D6A1D7B1D0FEF0A
:101C6000201A300A2D893E892C5F3F4F3E8B2D8BE9
:101C700089849A84AB84BC848B8E9C8EAD8EBE8E00
:101C8000A988BA88CB88DC88AF8EB8A2C9A2DAA2AC
:101C900001E32016310419F18D809E80AF80B88455
:101CA000898A9A8AAB8ABC8AAD84BE84CF84D8885C
:101CB000AD82BE82CF82D8864D865E866F86788A58
:101CC000C980DA80EB80FC80C986DA86EB86FC86E8
:101CD00089839A83AB83BC83DB01CA0114CE8FA0B6
:101CE00098A4A9A4BAA4480D591D6A1D7B1D2D9660
:101CF000EEADFFAD2D9742835383648375838BA430
:101D00009CA4ADA4BEA4880D991DAA1DBB1D8683ED
:101D10009783A087B18789819A81AB81BC818FA489
:101D200098A8A9A8BAA8880D991DAA1DBB1D8287CD
:101D30009387A487B58789859A85AB85BC858BA851
:101D40009CA8ADA8BEA8880D991DAA1DBB1D86879D
:101D50009787A08BB18B8FA898ACA9ACBAAC480C74
:101D6000591C6A1C7B1C428A538A648A758A8D8539
:101D70009E85AF85B8894BAC5CAC6DAC7EAC840DF8
:101D8000951DA61DB71D868B978BA08FB18F8D815A
:101D90009E81AF81B88523964CAC5DAC6EAC7FACB8
:101DA0002397840D951DA61DB71D828F938FA48F39
:101DB000B58F89899A89AB89BC8927964CAC5DAC73
:101DC0006EAC7FAC2797840D951DA61DB71D868F21
:101DD000978FA0A3B1A3C45BDF4F0FB6F894DEBF0B
:101DE0000FBECDBFDF91CF911F910F91FF90EF906C
:101DF000DF90CF90BF90AF909F908F907F906F902B
:101E00005F904F903F902F900895FC0187E696EEEB
:101E1000A9E0BAE682839383A483B58385E89EEA2A
:101E2000A7E6BBEB86839783A087B18782E793EF12
:101E3000AEE6BCE382879387A487B5878AE395EFF4
:101E4000AFE4B5EA86879787A08BB18B8FE792E5E1
:101E5000AEE0B1E5828B938BA48BB58B8CE898E6D2
:101E6000A5E0BBE9868B978BA08FB18F8BEA99EDAC
:101E7000A3E8BFE1828F938FA48FB58F89E19DEC9A
:101E8000A0EEBBE5868F978FA0A3B1A3DF01A65973
:101E9000BF4F1C92EE59FF4F1082118212821382A3
:101EA0001482158216821782089580E490E00895C6
:101EB00080E290E00895089580E090E00895DC01CC
:101EC000FB0112968C91129790E024813581821744
:101ED0009307D1F491818081813A31F481E091308E
:101EE00091F0933089F411C0813271F49B3021F468
:101EF00082811F968C9305C09A3031F4828150966E
:101F00008C9381E00895089580E00895DC01FB0141
:101F100088E4808389E4818384E482831D969C9194
:101F20001D979F709F5B93831D968D919C911E972B
:101F300024E0969587952A95E1F78F708F5B8483CF
:101F400085E00895FC0182818F5BFB01808381E045
:101F500008956F927F928F929F92AF92BF92CF928D
:101F6000DF92EF92FF920F931F93CF93DF934C0179
:101F70003B01EA019A0140E050E060E070E080E05F
:101F800090E003E00E94D22AF401EE59FF4FA080B6
:101F9000B180C280D380E480F580068117810E94E1
:101FA000092B208331834283538364837583868323
:101FB0009783840106591F4F80E4A82E740122E202
:101FC000E20EF11C209721F1F8018081BA2CB81A99
:101FD0002B2D30E0C217D30708F4BC2ECB2CD12C0C
:101FE000A601B3019701280F311DC9010E94652C7C
:101FF000F80180818B0D8083CC19DD096C0C7D1C70
:10200000803401F7C4010E94710AF8011082DACF0E
:10201000DF91CF911F910F91FF90EF90DF90CF90C4
:10202000BF90AF909F908F907F906F9008954F9248
:102030005F926F927F928F929F92AF92BF92CF9258
:10204000DF92EF92FF920F931F93CF93DF93EC01F8
:102050006B01942EA52E7C0182E2E80EF11CFE019C
:10206000E659FF4F2081822F90E08E010E591F4FBD
:10207000D701A80FB91F283308F06BC020E82C93B4
:10208000808190E047E350E0481B590B019660E0E7
:1020900070E08E0D9F1D0E946E2CD8018C901196C1
:1020A000BC9011971296FC9112971396EC9113978E
:1020B00014966C91149715967C911597282D3B2DAD
:1020C0004F2F5E2F16968C91169717969C9100E2D3
:1020D0000E94ED2AC901DA01AE01465A5F4F782EFF
:1020E0006624552444240B2F112722273327042943
:1020F000152926293729492E5A2E6B2E7724442458
:10210000662477240429152926293729BA2FA92FCF
:10211000982F882788279927BB27082B192B2A2B2C
:102120003B2BDA010D931D932D933C931397682D50
:102130007B2D8F2F9E2F0E94CB2AFE01E25AFF4F4C
:102140006083718382839383CE010E94710A2296F9
:1021500018C020E82C93808190E04FE350E0481BAA
:10216000590B019660E070E08E0D9F1D0E946E2C51
:10217000CE010E94710A88E3F70111928A95E9F76E
:102180008CCF69917991899199910E94CB2A6C8F1A
:102190007D8F8E8F9F8FCE15DF0599F7492D5A2D94
:1021A0004132510510F040E250E0B701C601DF9125
:1021B000CF911F910F91FF90EF90DF90CF90BF9044
:1021C000AF909F908F907F906F905F904F900C9406
:1021D000652C8F929F92AF92BF92CF92DF92EF9237
:1021E000FF920F93CF93DF9300D0CDB7DEB74C01B2
:1021F0007B01BA016901DC01ED91FC910680F78158
:10220000E02D49837A8309955C01D401ED91FC911D
:102210000084F185E02DC401099569817A81AC14AF
:10222000BD0428F0A601C7010E94652C24C0D4017A
:10223000ED91FC910284F385E02DA601C40109957E
:10224000D401ED91FC910480F581E02DC401099544
:102250006C01D401ED91FC910484F585E02DAC0175
:10226000B701C4010995D401ED91FC910084F18579
:10227000E02DC401099547018C0C9D1CA5014C194A
:102280005D09602F70E0C4010E946E2CF701E81513
:10229000F90521F0908190279193F9CF0F900F903D
:1022A000DF91CF910F91FF90EF90DF90CF90BF9093
:1022B000AF909F908F9008950F93CF93DF93EC0191
:1022C0009A01829606E3AB01BC01CE010E94E9109F
:1022D000FE01EE59FF4F208131814281538164819B
:1022E0007581868197813E5F4F4F5F4F6F4F7F4F64
:1022F0008F4F9F4F20833183428353836483758341
:1023000086839783CE01DF91CF910F910C94710A50
:10231000EF92FF920F931F93CF93DF93FB012081E6
:10232000213851F52381223239F5DC0112962C91A6
:1023300030E04481558142175307F1F4EC010B85DD
:102340001C85E12CF12C0115110591F0F801448157
:1023500055816281738180E80E9402188F3FFFEFF0
:102360009F0769F0E80EF91ED8010D911C91EBCF83
:1023700081E08F87C70105C080E090E002C08FEF49
:102380009FEFDF91CF911F910F91FF90EF900895F4
:10239000CF93DF93CDB7DEB769970FB6F894DEBF62
:1023A0000FBECDBFFC01DB018C918F5F8C93BE0112
:1023B0006F5F7F4F89E1DB011D928A95E9F729E084
:1023C000298384E08A8391E09D8383E08E832A873A
:1023D00021E22B879C879D879F8722E2288B27E01D
:1023E0002B8B25E02C8B8E8B20E430E0388F2F8BCD
:1023F000998F82818B8395858685998B8A8B838142
:1024000080688D8B49E150E080E00E940218699657
:102410000FB6F894DEBF0FBECDBFDF91CF91089508
:10242000CF93DF9390E0FC01E35CFB4F2491FC0130
:10243000E35EFB4F8491882361F190E0880F991F40
:10244000FC01E15FFB4FC591D491FC01EF5FFB4FB5
:10245000A591B491611109C09FB7F8948881209526
:1024600082238883EC912E230BC0623061F49FB7E6
:10247000F8943881822F809583238883EC912E2BCA
:102480002C939FBF06C08FB7F894E8812E2B28832A
:102490008FBFDF91CF9108958F929F92AF92BF929D
:1024A000CF92DF92EF92FF926B017C010E944C0A67
:1024B0004B015C01C114D104E104F104F1F00E946C
:1024C0004C0ADC01CB0188199909AA09BB09883E8D
:1024D0009340A105B10570F321E0C21AD108E108CB
:1024E000F10888EE880E83E0981EA11CB11CC1146F
:1024F000D104E104F10419F7DDCFFF90EF90DF90F4
:10250000CF90BF90AF909F908F9008952FB7F89481
:102510006091440470914504809146049091470471
:102520002FBF08951F920F920FB60F9211242F9371
:102530003F938F939F93AF93BF9380914404909167
:102540004504A0914604B09147043091430423E030
:10255000230F2D3720F40196A11DB11D05C026E8DB
:10256000230F0296A11DB11D2093430480934404C0
:1025700090934504A0934604B09347048091480487
:1025800090914904A0914A04B0914B040196A11D79
:10259000B11D8093480490934904A0934A04B093DA
:1025A0004B04BF91AF919F918F913F912F910F90CD
:1025B0000FBE0F901F9018951F920F920FB60F929B
:1025C00011242F934F935F936F937F938F939F93D8
:1025D000AF93BF932091840080913F049091400479
:1025E000A0914104B0914204820F911DA11DB11D23
:1025F00080933F0490934004A0934104B09342041D
:1026000080913F0490914004A0914104B091420414
:1026100040913F0450914004609141047091420404
:102620002AE0880F991FAA1FBB1F2A95D1F7840F94
:10263000951FA61FB71F80933F0490934004A0935B
:102640004104B093420480913F0490914004A091D2
:102650004104B091420440913F0450914004609184
:1026600041047091420426E0B695A7959795879509
:102670002A95D1F784279527A627B72780933F046B
:1026800090934004A0934104B093420480913E048F
:102690008F5F80933E04BF91AF919F918F917F9107
:1026A0006F915F914F912F910F900FBE0F901F90E0
:1026B0001895680F791F8617970721F0FC01108283
:1026C0000196F9CF08956F927F928F929F92AF9269
:1026D000BF92CF92DF92EF92FF920F931F93CF930F
:1026E000DF93CDB7DEB7A0970FB6F894DEBF0FBE6D
:1026F000CDBF7C014B013A0169015801DC01ED912C
:10270000FC910484F585E02D40E250E0BE016F5F4E
:102710007F4F0995B7016E5D7F4F0CE59301A401D2
:10272000C7010E94E910F701EE59FF4F2081318166
:102730004281538164817581868197813E5F4F4FCD
:102740005F4F6F4F7F4F8F4F9F4F20833183428367
:1027500053836483758386839783C7010E94710ABC
:10276000D701ED91FC910284F385E02D40E250E029
:10277000BE016F5F7F4FC7010995D701ED91FC91B5
:102780000484F585E02DA501B601C701099560E235
:1027900070E0CE0101960E945913A0960FB6F894EE
:1027A000DEBF0FBECDBFDF91CF911F910F91FF9084
:1027B000EF90DF90CF90BF90AF909F908F907F90E1
:1027C0006F900895CF93DF93EC0169E670E0029675
:1027D0000E945913E881F9810084F185E02DCE0132
:1027E000DF91CF9109942DE532E0FC0121933193E3
:1027F000CF0169E670E00C945913CF93DF93EC019D
:102800000E94F313CE01DF91CF910C94BB2B982F34
:1028100097709F5F21E030E001C0220F9A95EAF7A0
:10282000215098E0299F9001112482270895109249
:10283000BA021092690484E0809362041092C0028C
:102840001092BF021092B90208958091BA028111CC
:1028500003C08091B90202C081E090E081700895C8
:10286000809162048430E1F4809169048823C1F08E
:10287000E82FF0E0E659FB4F9091680490838F5F5A
:102880008093BE028AE694E09093BD028093BC02DE
:102890001092BB021092C00281E08093BA020895A8
:1028A00080E00895909162049430C9F49091690495
:1028B0009631A8F4E92FF0E0E659FB4F80839F5F43
:1028C0009093690490916C049F5F90936C04909135
:1028D00068049F5F890F8093680481E0089580E019
:1028E000089590916204943071F49091690490324B
:1028F00050F4E92FF0E0E756FD4F80839F5F9093FF
:10290000690481E0089580E0089520916604309183
:102910006704232B51F490919602911106C0809385
:10292000950281E080939602089580E008951092C8
:102930006704109266041092950280E28093B800BA
:102940001092B900ECEBF0E0808184648083808198
:10295000806480831092980210925E041092970215
:10296000109296020895AF92BF92CF92DF92EF92AB
:10297000FF920F931F93CF93DF931F92CDB7DEB7D4
:102980007C0169836A01590141E050E0BE016F5F3B
:102990007F4FFC0183810E9429188C0197FD0BC099
:1029A000F7018381A501B60180640E94291897FD73
:1029B00002C0800F911F0F90DF91CF911F910F9157
:1029C000FF90EF90DF90CF90BF90AF9008958091EF
:1029D000360481116BC081E08093290480932A041E
:1029E0002FE234E030932C0420932B0410922E0419
:1029F00010922D042BE132E030932604209325041D
:102A00001092310410923004109233041092320468
:102A1000809334048093350481EC80932F040E94CA
:102A2000D918FC0121818091290490E0820F911D29
:102A3000089724F081E08093360438C0A281B381E6
:102A4000109729F485E294E0938382830EC0189650
:102A50008D919C911997009711F0DC01F8CF85E2D8
:102A600094E019969C938E93189780818093270405
:102A7000818180932804908180912A04890F80832A
:102A800080E0909129048917A8F6A0912B04B091B9
:102A90002C04A80FB11D9C91A181B0E0A050BF4FA4
:102AA0009C9391819F5F91838F5FEBCF85E294E050
:102AB0000895CF93DF93DC01683810F0685825C083
:102AC000E62FF0E067FF12C0E058F10981E090E0E6
:102AD00001C0880FEA95EAF7809514969C911497A7
:102AE000892314968C93149760E00FC0EF57FD4F25
:102AF0006491662329F167FF08C014968C9114979E
:102B00008D7F14968C9314976F77FD01369686E02F
:102B1000662321F09081961301C010828150319676
:102B20008111F6CFED010E94E714AE014C5F5F4FBB
:102B300028E030E062E00E94B31481E090E002C03F
:102B400080E090E0DF91CF910895CF93DF93DC0197
:102B5000683810F068582DC0E62FF0E067FF11C00C
:102B6000E058F10981E090E001C0880FEA95EAF7AA
:102B700014969C911497892B14968C93149760E06B
:102B800018C0EF57FD4F6491611109C081E090E0DA
:102B900013969C938E93129780E090E046C067FF57
:102BA00008C014968C911497826014968C93149795
:102BB0006F7716968C911697861751F117968C9110
:102BC0001797861729F118968C911897861701F197
:102BD00019968C9119978617D9F01A968C911A9795
:102BE0008617B1F01B968C911B97861789F0FD0113
:102BF000369680E090E02191211105C0FD01E80F9B
:102C0000F91F668305C0019686309105A1F7BECFF6
:102C1000ED010E94E714AE014C5F5F4F28E030E009
:102C200062E00E94B31481E090E0DF91CF910895BB
:102C3000EF92FF921F93CF93DF93EC01162F0E9428
:102C4000A5157C01612FCE010E945915C701992756
:102C5000DF91CF911F91FF90EF900895FC01808547
:102C600080FD04C082FB882780F9089580E00895E4
:102C7000AF92BF92CF92DF92FF920F931F93CF93A9
:102C8000DF93EC0188858B7F8887E881F98101904B
:102C9000F081E02DCE010995F82E988596959170DA
:102CA000891759F00E9486126A837B838C839D83E7
:102CB000988582E0892788872AC00E9486120A8127
:102CC0001B812C813D815B016C01A01AB10AC20AF3
:102CD000D30A4E815F8160E070E0A416B506C60697
:102CE000D706A8F098859170F91689F00E9486128F
:102CF0006A837B838C839D83988581E089278460A8
:102D000088870E9486126A877B878C879D87888543
:102D100082FB882780F9DF91CF911F910F91FF905F
:102D2000DF90CF90BF90AF90089540915A0450919A
:102D30005B04209158043091590442175307B4F4AE
:102D40009091E8009570E1F39091E80092FD19C030
:102D50008093F10080915A0490915B0401968F73E7
:102D60009927892B19F48EEF8093E80080915A04FB
:102D700090915B04019690935B0480935A0481E0E8
:102D8000089580E008952FB7F89487708093E90044
:102D90009091E800892F807295FF04C09091F20015
:102DA00080E4891B2FBF0895615030F02091F1001D
:102DB000FC0120830196F8CF289884E68093810453
:102DC0000895CF92DF92EF92FF920F931F93CF93CC
:102DD000DF936C017A018B01C0E0D0E0CE15DF05F6
:102DE00089F0D8016D918D01D601ED91FC91019092
:102DF000F081E02DC6010995892B11F47E0102C0F6
:102E00002196ECCFC701DF91CF911F910F91FF90D9
:102E1000EF90DF90CF900895CF93DF931F92CDB7BF
:102E2000DEB76983DC01ED91FC910280F381E02D36
:102E300041E050E0BE016F5F7F4F09950F90DF9139
:102E4000CF91089583E08093E9008091F200882378
:102E500019F08AE38093E800089583E00E94C31686
:102E600090E00895FC018485958597FD0BC09FB780
:102E7000F89482E08093E9008091F2009FBF90E097
:102E8000019608959FB7F89482E08093E9008091BD
:102E9000F2009FBF90E008950E94532CCF93DF93E0
:102EA0001F92CDB7DEB7FC018485958597FD05C0DF
:102EB0002FEF3FEF358724870BC0CE0101960E948C
:102EC000741B019719F4898190E002C08FEF9FEF86
:102ED0000F90DF91CF9108950F931F93CF93DF93BE
:102EE0001F92CDB7DEB78C01FC018485958597FFD5
:102EF0000EC0CE0101960E94741B019719F429811E
:102F000030E002C02FEF3FEFF80135872487F8014A
:102F1000848595850F90DF91CF911F910F91089532
:102F20001F920F920FB60F9211248F939F9380914F
:102F3000E1009091E100937F9093E10083FF0FC047
:102F40001092E90091E09093EB001092EC0092E374
:102F50009093ED001092820498E09093F00082FF2D
:102F600020C093E09093E9009091F200992319F02A
:102F70009AE39093E80090915C04992339F0909142
:102F80005C04915090935C04992389F190918104A1
:102F9000992339F090918104915090938104992361
:102FA00041F184FF10C08091E2008E7E81608093A9
:102FB000E2008091E1008F7E8093E1008091930296
:102FC0008E7E806111C080FF16C08091E2008E7EEF
:102FD00080618093E2008091E1008E7E8093E10029
:102FE000809193028E7E81608093930204C05D9AEB
:102FF000CDCF289AD6CF9F918F910F900FBE0F9073
:103000001F901895DF92EF92FF920F931F93CF932B
:10301000DF93D82E8A017B01E40EF51EEB01CE155D
:10302000DF0571F0D7FE03C0FE01849101C08881E5
:103030000E94951621968111F2CF8FEF9FEF01C06C
:10304000C801DF91CF911F910F91FF90EF90DF901A
:1030500008957F928F929F92AF92BF92CF92DF920C
:10306000EF92FF920F931F93CF93DF93C82E8B01A4
:103070007A0180918204811103C08FEF9FEF75C0A8
:103080008091930280FF05C08091E0008260809370
:10309000E000CE2DDF2DD12C8AEF882E8C2D87706D
:1030A000B82E8C2D8072A82E8C2D8074982E9AE3C9
:1030B000792E209709F452C08C2D0E94C316282F18
:1030C00081110AC08A948820C1F261E070E080E03A
:1030D00090E00E944C12EDCF90E0C817D9070CF495
:1030E0002C2F3FB7F894B092E9008091E80085FF5B
:1030F00033C0822F90E0C81BD90BAA2029F02150A1
:10310000A8F01092F100FBCFF801C7FE07C02150D4
:1031100058F044914093F1003196F9CF215020F0BE
:1031200041914093F100FACF080F191FDD2019F0EB
:103130007092E8000AC08091E80085FD08C0709296
:10314000E800DD24D394209739F0D12C05C02097D6
:1031500019F491107092E8003FBFABCFD110ACCF03
:103160005D9884E680935C04C701DF91CF911F9145
:103170000F91FF90EF90DF90CF90BF90AF909F9016
:103180008F907F900895CF93DF93EC01809112018F
:10319000882331F083E00E9429181816190634F0AC
:1031A00081E090E09B838A8380E090E0DF91CF9183
:1031B00008958091500481110DC082E080934C04E9
:1031C00084E080934D0410924F0410924E0481E0ED
:1031D000809350048CE494E008950F931F93CF9351
:1031E000DF931F92CDB7DEB782E0898342E450E0DF
:1031F0006DE574E080E80E9402180E94D918DC0195
:1032000012960D911C9113970115110569F0D801C3
:10321000ED91FC910280F381E02DBE016F5F7F4F45
:10322000C801099597FF07C089810F90DF91CF9161
:103230001F910F910895F80100851185E5CF1F9228
:103240000F920FB60F921124CF92DF92EF92FF925E
:103250000F931F932F933F934F935F936F937F939E
:103260008F939F93AF93BF93EF93FF93CF93DF938E
:10327000CDB7DEB76C97DEBFCDBF1092E90080916D
:10328000E80083FFEDC168E0CE0145960E94D416A8
:1032900082EF8093E8008D8987FF05C09091E80058
:1032A00090FFFCCF03C09EEF9093E800982F90769C
:1032B00009F0C6C09E892F89188D91110CC08038E5
:1032C00029F4809194028093F10002C01092F100E1
:1032D0001092F10048C1422F50E0512B913051F42F
:1032E000811141C14130510509F03DC180919402E5
:1032F0008D7F0BC0933061F4811135C14130510590
:1033000009F031C1809194028260809394022BC1B4
:10331000953041F48091E80080FFFCCF2068209335
:10332000E30021C1963009F05FC0EB8CFC8C109259
:10333000E90010925B0410925A04123091F5109239
:103340005904109258040E94ED1899E0BE016F5F75
:103350007F4FDB01E92F1D92EA95E9F799831A83E4
:1033600091E09E8390EA98879AEF998720915A047A
:1033700030915B04275F3F4F3C832B838D831092FA
:10338000E90010925B0410925A04F0925904E09202
:10339000580449E050E080E00E9402180E94ED18B5
:1033A000E2C0F0925904E09258040E94D918DC015E
:1033B0001296ED90FC901397E114F10409F4C0C04B
:1033C000D701ED91FC910480F581E02DBE016B5E8B
:1033D0007F4FC7010995009719F00CF0C4C0C7C012
:1033E000F701E084F184E8CF973009F4C0C0983049
:1033F00021F481E08093F100B6C0993009F0B3C0A8
:10340000837009F0B4C0E1E0F1E081E021E036E34F
:103410009081992361F08093E9002093EB009191D2
:103420009093EC003093ED008F5F873089F78EE743
:103430008093EA001092EA008F898093820493C0FF
:103440008B8D9C8D1092E90010925B0410925A04AF
:103450009093590480935804898D811156C08E89A8
:103460009D89913A59F4813209F081C047E050E0DA
:103470006BE071E080E00E94021875C0913209F0A3
:1034800076C0833289F4888D90E0982F88272F8921
:10349000822BA0E0B0E08093070190930801A093F5
:1034A0000901B0930A015FC0803269F48091E8009D
:1034B00082FFFCCF67E08BE091E00E94D4168BEF97
:1034C0008093E80006C0823209F04DC08F89809356
:1034D000120180919202882319F0EEEFFAE002C007
:1034E000E0E0F8E080910B0190910C01A0910D01BA
:1034F000B0910E01803B9440A105B10509F07BC05D
:103500008091120180FF93C076C00E94D918DC011F
:1035100012960D911C9113970115110541F1D801D7
:10352000ED91FC910190F081E02DBE016B5E7F4F2B
:10353000C8010995811117C0F80100851185ECCFEC
:10354000113009F44EC0133091F48F89882309F4A7
:1035500045C0823081F440E86EE08DEB94E00E943B
:103560005E28882321F08EEF8093E80079C081E205
:103570008093EB0075C0813029F440E867E085EB6B
:1035800094E0EDCF833099F70E94D918DC011296B0
:10359000ED90FC9013978E010F5F1F4F6801E114AF
:1035A000F10479F0D701ED91FC910680F781E02DCF
:1035B000B801C7010995080F111DF701E084F184D6
:1035C000EECFD8011C92F60101900020E9F7319767
:1035D000BF016C197D0940E0C601C1CF6FE974E0FD
:1035E00002C063EA74E06115710509F2FB014491C0
:1035F00050E080E840CF0FB6F894A8958091600025
:10360000886180936000109260000FBEA895EE3F25
:103610002AE0F20739F08091FE0A9091FF0A918327
:103620008083A1CF1092FF0A1092FE0A9CCFEE3F3A
:103630008AE0F80731F0808191819093FF0A8093AE
:10364000FE0A87E797E7918380839BE088E10FB6C6
:10365000F894A895809360000FBE9093600083CF8C
:103660006C960FB6F894DEBF0FBECDBFDF91CF9141
:10367000FF91EF91BF91AF919F918F917F916F914A
:103680005F914F913F912F911F910F91FF90EF907C
:10369000DF90CF900F900FBE0F901F901895CF9393
:1036A000DF9300D000D01F92CDB7DEB7EFEDF4E08E
:1036B00080818983918182819A838B8393818481A4
:1036C0009C838D830E94E71425E030E0AE014F5FBC
:1036D0005F4F61E00E94B3140F900F900F900F9016
:1036E0000F90DF91CF910895FC01809182048111A8
:1036F00003C08FEF9FEF08959FB7F89482E0809307
:10370000E9002091F20030E01216130614F421E0D3
:1037100030E02115310559F0289884E68093810422
:103720008091F10080838091F200882319F09FBF7F
:10373000C90108958BE68093E800F9CFBC0100979A
:1037400091F0FC0101900020E9F73197AF01481B8F
:10375000590BE0918304F09184040280F381E02D01
:1037600083E894E0099480E090E00895CF93C82F17
:103770000E942514811113C09091800490936A04D3
:10378000C0936B0410926C0483E080936904C90FAA
:10379000C09368049F5F9093800481E001C080E043
:1037A000CF9108958091660490916704892BE9F484
:1037B0008091640490916504892BB9F081E0809335
:1037C000610422E634E03093600420935F04809328
:1037D0006204109263049091BC0090649093BC00CA
:1037E00080935E0410925D04089580E00895CF9365
:1037F000DF9300D000D0CDB7DEB7789484B5826077
:1038000084BD84B5816084BD85B5826085BD85B584
:10381000816085BD80916E00816080936E00109202
:10382000810080918100826080938100809181007D
:10383000816080938100809180008160809380000E
:1038400080919100826080939100809191008160CD
:10385000809391008091900081608093900080918E
:10386000C10084608093C1008091C1008260809318
:10387000C1008091C10081608093C1008091C3002C
:1038800081608093C3008091C00082608093C000FB
:103890008091C20081608093C20080917A00846030
:1038A00080937A0080917A00826080937A00809180
:1038B0007A00816080937A0080917A00806880939A
:1038C0007A001092820410929402109293028091D6
:1038D000D70081608093D70080EA8093D80089B5B3
:1038E000806189BD89B5826089BD09B400FEFDCFC4
:1038F00061E070E080E090E00E944C128091D8007E
:103900008F7C80618093D8008091E000807F8093DD
:10391000E0008091E1008E7E8093E1008DE0809355
:10392000E200559A209AEEEFFFE7859194918B3F44
:103930009C4D19F481E0809392021DB8239A61E0B6
:103940008DE00E94101260E085E00E94101260E09D
:103950008FE10E94101260E08AE00E94101260E085
:1039600087E00E94101260E089E00E94101260E07F
:103970008DE00E94101260E084E00E94101260E06E
:103980008EE10E94101260E08CE00E94101260E054
:1039900086E00E9410120E9497141092A7031092C2
:1039A000A6031092690484E0809362041092C0021E
:1039B0000E9417141092A80310925B0383E0809377
:1039C000B40310925A031092B30310925903109249
:1039D000B203109255031092C60210925703109230
:1039E0005603109258030E9419041092C3031092B8
:1039F000CA031092CC031092C8031092CB0310920A
:103A0000C90310929603109295031092940310929A
:103A100093031092920310928A03109289031092DA
:103A20008803109291031092CF030E948612609334
:103A3000D0037093D1038093D2039093D3033F9824
:103A400081E0809359030CE010E0E9E0AE2EB12C48
:103A5000F3E1EF2EF12CABE02A2E312C6AE0C62EDA
:103A6000D12C72E1872E912CE0916604F0916704CD
:103A7000E931F10508F006C3EA5AFF4F0C94C52A54
:103A800080915E04882309F40DC381E090E0909357
:103A90006704809366041092960210925E0402C33B
:103AA0008091BC00806A8093BC0082E090E0D0C22C
:103AB0008091BC0087FFF6C28091B900887F883072
:103AC000D9F48091BC008F758093BC0090919802CE
:103AD00080919502880F911105C090916104911118
:103AE00001C081608093BB008091BC00806880939E
:103AF000BC0083E090E0ACC28091BC008F758093E5
:103B0000BC008091BC0080698093BC0081E190E0A2
:103B10009FC28091BC0087FFC5C28091B900887F99
:103B2000883119F0803441F1CAC180916104882341
:103B3000E9F010925D0480919802882389F08091C9
:103B40009D038093BB008091BC0080688093BC0083
:103B500080919702882309F44DC086E090E078C2F6
:103B60008091A003882309F4F8C0E7C18091BC00CC
:103B700080698093BC0004C080916104882319F09F
:103B800080E190E065C21092A203809198028823A0
:103B900089F080919D038093BB008091BC00806878
:103BA0008093BC0080919702882309F452C088E07A
:103BB00090E04EC28091A103882309F4CEC0809189
:103BC000BC0080688093BC0010929B03C1C08091B0
:103BD000BC0087FF67C28091B900887F883209F0F6
:103BE00044C080919C038093BB008091BC0080689E
:103BF0008093BC0085E090E02BC28091BC0087FFE1
:103C000051C28091B900887F883279F580919E03F6
:103C1000882309F492C18091A0038093BB00809116
:103C2000BC0080688093BC008DE090E011C2809160
:103C3000BC0087FF37C28091B900887F8832A9F421
:103C400080919C038093BB008091BC00806880932E
:103C5000BC0087E090E0FCC18091BC0087FF22C2DD
:103C60008091B900887F883259F0803309F027C1EC
:103C70008091BC0080698093BC0084E190E0E8C141
:103C80008091BC00806A8093BC004FE050E0D0C1BE
:103C90008091BC0087FF06C28091B900887F803187
:103CA00061F58091BC008F758093BC008091950276
:103CB000880F81608093BB008091BC0080688093F6
:103CC000BC0084E090E0C4C18091BC0087FFEAC1E1
:103CD0008091B900887F803481F480919E0388238D
:103CE00039F1EEE0F0E0F0936704E0936604809130
:103CF000BC0080688093BC00D5C18091BC00806905
:103D00008093BC009092670480926604CBC180913E
:103D1000BC0087FFC7C18091B900887F803539F525
:103D20008091BB009091A103891710F48093A103A7
:103D30008091A103882389F0813029F48091BC000F
:103D40008F7B8093BC008091BC0080688093BC0016
:103D5000D0926704C0926604A5C18091BC008069BE
:103D60008093BC0010936704009366049BC180910C
:103D7000BC0080698093BC0056E1452E512C8EC159
:103D80008091BC0087FF8EC18091B900887F80350B
:103D9000F9F0883509F068C08091BB00E091A30379
:103DA000F091A403808380939A038091BC00806982
:103DB0008093BC008091A2038F5F8093A203109335
:103DC000670400936604E0915F04F0916004D3C03F
:103DD0008091BB00E091A303F091A4038193F09341
:103DE000A403E093A3032091A2032F5F2093A203D7
:103DF0003091A103832F90E0821B9109019779F400
:103E00008091BC008F7B8093BC008091BC00806857
:103E10008093BC008091A2038093990343C1809159
:103E2000BC00321316C080698093BC0010936704F5
:103E300000936604E0915F04F09160048091A20316
:103E40008183E091A303F091A403808180939A037E
:103E500029C180688093BC00E091A303F091A40382
:103E60008081809398031EC18091BC0080939B0346
:103E70008091BC0080698093BC0047E1642E712C66
:103E80007092670460926604E0915F04F0916004B0
:103E90008091A20370C08091BC0087FF03C1809114
:103EA000B900887F883209F448C0803341F480919A
:103EB000BC0080698093BC0025E130E0A9C08091FE
:103EC000BC0080698093BC00F0926704E0926604B5
:103ED000E9C0E0916404F091650480818093BB00A7
:103EE0008091BC0080688093BC003092670420926F
:103EF0006604D8C08091BC0087FFD4C08091B9000F
:103F0000887F883241F0803339F580915D048F5F7E
:103F100080935D0417C080915D048F5F80935D0482
:103F20009091A003891770F48091640490916504C6
:103F300001969093650480936404B0926704A09204
:103F40006604B0C08091BC0080698093BC0010936F
:103F500067040093660409C08091BC008069809367
:103F6000BC00F0926704E0926604E0915F04F09177
:103F7000600480915D04818395C08091B900809335
:103F800097038091B900887FE0915F04F09160040D
:103F9000811106C08AE080939B0385E0808346C040
:103FA000109267041092660484E080837BC0E091E5
:103FB0005F04F091600485E0808382E045C0E09179
:103FC0005F04F091600485E0808383E04DC0E09160
:103FD0005F04F091600485E0808384E05AC0E09142
:103FE0005F04F091600485E0808338E1632E712CDA
:103FF000709267046092660455C0E0915F04F0918E
:10400000600485E0808386E080939B0328E130E0B4
:10401000309367042093660445C0E0915F04F091FB
:10402000600485E0808387E080939B0348E150E053
:10403000509367044093660435C0E0915F04F091AB
:10404000600485E0808388E080939B0388E190E0B2
:10405000909367048093660425C0E0915F04F0911B
:10406000600485E0808389E080939B03E8E1F0E0D1
:10407000F0936704E093660415C01092BC000E94A0
:10408000971410C0E0915F04F091600485E0808394
:104090008BE080939B0328E1422E512C50926704C1
:1040A00040926604E091A7038E2F90E08B3091053B
:1040B00008F0BFC0FC01E159FF4F0C94C52A8CE207
:1040C0000E948514882309F4BFC082E09BC0409100
:1040D000BE028091BC029091BD0220916604309195
:1040E0006704232B09F0B0C0009709F4ADC090938A
:1040F0006504809364044093A00383E083C020910F
:10410000A5038091660490916704892B09F09CC0F7
:1041100081E080939E0310929702809398022093EF
:104120009D0384E06FC00E94D21B882309F48CC0D9
:1041300085E068C080916204843061F0853009F0C8
:1041400083C08091BB028F5F8093BB02843010F0EC
:104150008BE058C0909163048091BE02891B8093CC
:10416000BE028823A9F0809163049091A503890F72
:104170008093A503209163048091BC029091BD02BD
:10418000820F911D9093BD028093BC0281E03AC0E2
:1041900081E08093C0021092A70356C08CE20E9477
:1041A0008514882309F450C081E080939F0387E041
:1041B00029C08091660490916704892B09F044C05E
:1041C0008FE993E0909365048093640481E0809389
:1041D000A00388E017C08091660490916704892B42
:1041E00099F581E080939E03109297028093980244
:1041F0008FEF80939D0389E005C00E94D21B882326
:1042000019F18AE08093A7031FC080916204843073
:1042100051F08530C9F48091BB028F5F8093BB025F
:10422000843008F095CF809163048111B1CF86E08E
:10423000E9CF1092A7031092A6031092690484E0BC
:10424000809362041092C002E091BA028E2F90E037
:104250008D30910508F0FDC0FC01E658FF4F0C942D
:10426000C52A8091B902882309F4F5C08091C00263
:10427000882321F087E08093BA0202C01092AC0339
:104280001092B902E8C087E30E948514882309F4DC
:10429000E2C082E0D1C04091BE028091BC02909108
:1042A000BD022091660430916704232B09F0D3C02E
:1042B000009709F4D0C09093650480936404409300
:1042C000A00383E0B9C08091660490916704892BB4
:1042D00009F0C1C01092980284E0AEC00E94D21BC7
:1042E000882309F4B8C085E0A7C0809162048430B7
:1042F00061F0853009F0AFC08091BB028F5F809381
:10430000BB02843010F08CE097C0909163048091E0
:10431000BE02891B8093BE02882371F02091630442
:104320008091BC029091BD02820F911D9093BD02BD
:104330008093BC0281E080C081E08093C00284C091
:1043400087E30E948514882309F485C088E074C03F
:104350004091AB038091A9039091AA032091660438
:1043600030916704232B09F076C0009709F473C0DD
:104370009093A4038093A3034093A10389E05CC0BE
:104380008091660490916704892B09F064C01092B3
:1043900098028AE051C08091660490916704892B4D
:1043A00009F059C08091A3039091A403892B09F4CB
:1043B00052C01092610482E694E09093600480936E
:1043C0005F0491E090936204109263048091BC00BA
:1043D00080648093BC0090935E041092A2038BE0F3
:1043E0002BC080916204843041F08530A1F58CE0CF
:1043F0008093BA021092AC032EC08091AB039091CF
:1044000063049817E0F490916304911103C0109233
:10441000BF0218C090916304891B8093AB03209165
:1044200063048091A9039091AA03820F911D909338
:10443000AA038093A90387E08093BA020CC081E0AD
:104440008093BF021092AC031092BA0204C00E9483
:1044500017140E94171420915B03223009F4D0C076
:1044600030F4222359F0213009F4A8C0FAC02530D5
:1044700009F4DEC0263009F4E9C0F3C08091A80336
:1044800081116CC08091A7038111EBC01092A6032B
:104490001092690484E20E947114882309F4E1C037
:1044A00084E00E94711482E10E94711485E20E94EE
:1044B000711483EB0E9471148BE00E9471148BE9DC
:1044C0000E94711480E20E94711483E00E947114B2
:1044D00080E00E94711480E00E94711480E00E94CC
:1044E000711481E00E94711482E30E94711481E0D2
:1044F0000E94711482E30E94711482E30E9471147D
:1045000080E00E94711480E00E94711484E00E9497
:10451000711480E00E94711480E00E9471148BE499
:104520000E94711480E00E94711483E50E9471144E
:1045300080E00E94711482E40E94711480E00E9465
:10454000711480E20E94711480E00E94711480E076
:104550000E94711480E00E94711417C08730B8F473
:104560009091A70391117DC08295880F807E8093E2
:10457000A6031092690490E2692E712C80E00E94DB
:10458000711421E0621A7108C9F781E068C08730B0
:1045900009F045C08091A703811163C080EE80932C
:1045A000A603109269048FE1682E712C80E00E94AE
:1045B000711431E0631A7108C9F7E7CF8091620482
:1045C000843009F04EC080916904882309F449C001
:1045D0002F9A2F98809169048093BE028091A60340
:1045E0008093A50389E992E09093BD028093BC0279
:1045F0001092BB021092C0022093A70382E02FC04A
:104600008091A70381112DC08091C002882349F1B8
:104610008091A803873031F485E080935B0310928A
:10462000A8031FC08F5F8093A80310925B0319C07B
:10463000809162048430A9F480916904882389F010
:104640001092C00286E08093A70309C08091A7035F
:10465000811107C08091C002882319F083E0809304
:104660005B038091CE03E0915A03882359F01092A6
:10467000CE039091B403992329F0E13019F49150BD
:104680009093B4038E2F90E08431910508F08AC195
:10469000FC01E957FF4F0C94C52A80915B038330DE
:1046A00009F080C181E07CC18091B40381117AC19D
:1046B00076C1809159039091B303891739F088230B
:1046C00011F083E001C084E080935A038091B2032B
:1046D000882329F087E080935A0381E011C08091FC
:1046E0005703882329F08DE080935A0382E008C0A5
:1046F00080915603882339F08EE080935A0383E03B
:10470000809358034FC180915503882309F44AC10F
:104710001092B10384E08093580386C08AE00E941F
:10472000B61B882309F43EC185E03AC189E0F7CF82
:10473000809180048093B0038BE00E94B61B882395
:1047400009F430C18FE00BC0809180048093B003E6
:104750008BE00E94B61B882309F424C180E180937A
:104760005A031092B1031EC1709054036090C702A7
:104770000E942514811116C180916204843009F0D1
:1047800011C16092AB03872D90E088539D4F9093A9
:10479000AA038093A9039091800490936A0482E015
:1047A00080936B0421E020936C0470926D04872D3C
:1047B000890F8D5F80936E049F5F9093800485E0E6
:1047C0008093BE028AE694E09093BD028093BC027F
:1047D0001092BB021092C0022093BA022093B90239
:1047E0001092BF022093AC0383E1DAC08091AC0346
:1047F0008111D8C08091BF02882341F010925503E7
:1048000081E08093C60210925803C9C08091B10321
:104810008F5F8093B103833039F41092550382E0A7
:1048200080935A0387E06CCF82E1BAC00E943014B3
:10483000882309F4B7C086E0B3C08091B10381300A
:1048400061F018F0833091F0ADC081E00E94521405
:10485000882309F4A7C081E029C08091C4020E9486
:104860005214882309F49EC083E020C00E943014B3
:10487000882309F497C081E180935A0384E016C02D
:104880008091B103813031F018F0833031F08AC06B
:1048900082E0DCCF8091C202E2CF0E9430148823F4
:1048A00009F480C081E180935A0385E08093B103CD
:1048B00079C00E942514811175C08091C00288239F
:1048C00009F46DC0809159038093B30368C00E94BE
:1048D0002514811167C089E0809358038091C0023C
:1048E000882309F45CC0109258038091B10384308E
:1048F00019F41092570304C0853011F41092560336
:104900008091B0038093C1024AC083E00E94B61B2D
:10491000882309F447C088E043C080E00E94521415
:10492000882309F43FC089E03BC080E00E94521414
:104930008823C1F18091AF03882311F08AE030C051
:104940008BE02EC06090AD037090AE03F3018081C8
:104950000E945214882331F18091AF0381508093DB
:10496000AF03882369F3FFEF6F1A7F0A7092AE03DB
:104970006092AD0317C00E943014882399F08CE038
:104980000FC08AE0809358030E94251481110AC049
:104990008091C0028111109258031092B20382E0FC
:1049A00080935A030E94D90480915B03833009F0FD
:1049B000E1C21092900310928F0310928E03109216
:1049C0008D0310928C0310928B0381E495E00E947A
:1049D0003816882359F181E495E00E942E16882329
:1049E00021F081E08093CC0302C01092CC0380912F
:1049F000CC03882349F0809184038111F5C2809112
:104A0000820390918303F7C2809182039091830384
:104A10000E944E038091BE03882341F01092BE0392
:104A200080918003909181030E944E0385E295E07E
:104A30000E943816882359F185E295E00E942E16CF
:104A4000882321F081E08093CB0302C01092CB0336
:104A50008091CB03882349F0809184038111CEC2D9
:104A600080917E0390917F03D0C280917E039091CC
:104A70007F030E944E038091BD03882341F0109272
:104A8000BD0380917C0390917D030E944E038FE4CF
:104A900095E00E943816882359F18FE495E00E9432
:104AA0002E16882321F081E08093CA0302C0109261
:104AB000CA038091CA03882349F08091840381113D
:104AC000A7C280917A0390917B03A9C280917A0357
:104AD00090917B030E944E038091BC03882341F098
:104AE0001092BC0380917803909179030E944E0349
:104AF0008DE595E00E943816882341F18091650587
:104B00008570853009F08EC281E08093C903809161
:104B1000C903882349F080918403811186C2809162
:104B200076039091770388C2809176039091770302
:104B30000E944E038091BB03882341F01092BB0377
:104B400080917403909175030E944E0383E395E076
:104B50000E943816882359F183E395E00E942E16AF
:104B6000882321F081E08093C80302C01092C8031B
:104B70008091C803882349F08091840381115FC22A
:104B8000809172039091730361C28091720390913E
:104B900073030E944E038091BA03882341F0109260
:104BA000BA0380917003909171030E944E0387E1D4
:104BB00095E00E943816882359F187E195E00E941C
:104BC0002E16882321F081E08093C70302C0109243
:104BD000C7038091C703882349F080918403811122
:104BE00038C280916E0390916F033AC280916E0338
:104BF00090916F030E944E038091B903882341F086
:104C00001092B90380916C0390916D030E944E0342
:104C100089E095E00E943816882359F189E095E0F3
:104C20000E942E16882321F081E08093C60302C0E3
:104C30001092C6038091C603882349F080918403B3
:104C4000811111C280916A0390916B0313C280910C
:104C50006A0390916B030E944E038091B8038823EE
:104C600041F01092B80380916803909169030E940B
:104C70004E038BEF94E00E943816882359F18BEF96
:104C800094E00E942E16882321F081E08093C503D2
:104C900002C01092C5038091C503882349F080911A
:104CA00084038111EAC18091660390916703ECC18E
:104CB00080916603909167030E944E038091B70331
:104CC000882341F01092B7038091640390916503AB
:104CD0000E944E038DEE94E00E943816882359F10D
:104CE0008DEE94E00E942E16882321F081E08093BF
:104CF000C40302C01092C4038091C403882349F006
:104D0000809184038111C3C18091620390916303F8
:104D1000C5C180916203909163030E944E0380910C
:104D2000B603882341F01092B603809160039091FE
:104D300061030E944E038BE695E00E94381688239B
:104D400051F1809173058570853009F0AAC181E029
:104D50008093C3038091C303882359F08091840317
:104D60008111A2C180915E0390915F030E947F0335
:104D700012C080915E0390915F030E944E03809168
:104D8000B503882341F01092B50380915C039091A4
:104D90005D030E944E0380919003882321F081E0FF
:104DA00080938A0305C080918D03811110928A033C
:104DB00080918F03882321F081E08093890305C0CF
:104DC00080918C0381111092890380918E03882336
:104DD00021F081E08093880305C080918B038111CD
:104DE0001092880380918703882331F090918A0381
:104DF00081E0892780938A03809186038823C9F103
:104E00008091C1039091C20364E670E00E94B12AD0
:104E1000892B29F52091BF033091C00390918A031B
:104E2000253031055CF081E08093880389278093E9
:104E30008A031092C0031092BF0306C01092880329
:104E400081E0892780938A030E942F038091BF030A
:104E50009091C00301969093C0038093BF0380910B
:104E6000C1039091C20301969093C2038093C10342
:104E700002C00E942F0380918503882309F47AC021
:104E8000109285036EEF83E894E00E940C178091E6
:104E9000C303882311F061E001C060E083E894E07F
:104EA0000E940C178091C903882311F061E001C0B2
:104EB00060E083E894E00E940C178091CA03882385
:104EC00011F061E001C060E083E894E00E940C17FB
:104ED0008091CC03882311F061E001C060E083E899
:104EE00094E00E940C178091C803882311F061E0C0
:104EF00001C060E083E894E00E940C178091CB032E
:104F0000882311F061E001C060E083E894E00E9432
:104F10000C178091C703882311F061E001C060E0A5
:104F200083E894E00E940C178091C603882311F057
:104F300061E001C060E083E894E00E940C1780917A
:104F4000C503882311F061E001C060E083E894E0CC
:104F50000E940C178091C403882311F061E001C006
:104F600060E083E894E00E940C1766E983E894E02F
:104F70000E940C170E9486124090D0035090D103DB
:104F80006090D2037090D30349825A826B827C82F4
:104F9000AB01BC0144195509660977094431510533
:104FA00061057105B8F0D301C2014496A11DB11D80
:104FB0008093D0039093D103A093D203B093D303F3
:104FC00081E08093CF038093CE038091CD038F5FE8
:104FD0008093CD0380E090E0892B11F40C94341D74
:104FE0000E9400000C942E1D81E08093BE038091EE
:104FF0008003909181030E947F0318CD81E080930C
:10500000BD0380917C0390917D030E947F033FCD7F
:1050100081E08093BC0380917803909179030E9492
:105020007F0366CD1092C90372CD81E08093BB03EC
:1050300080917403909175030E947F0387CD81E076
:105040008093BA0380917003909171030E947F0353
:10505000AECD81E08093B90380916C0390916D0394
:105060000E947F03D5CD81E08093B80380916803CF
:10507000909169030E947F03FCCD81E08093B70388
:1050800080916403909165030E947F0323CE81E0A9
:105090008093B60380916003909161030E947F0327
:1050A0004ACE1092C30356CE80915C0390915D036B
:1050B0000E947F0381E08093B5036DCECF92DF9293
:1050C000EF92FF920F931F93CF93DF931F92CDB771
:1050D000DEB7182F062FE42E862F880F8E5F998358
:1050E0000E94951683E00E949516F12EC12E99819B
:1050F000D92E8C2D8F19801798F4F601E7FE02C087
:10510000849101C080810E949516182F80E00E9432
:1051100095168123FFEFCF1ADF0A8111EACF01C074
:1051200081E00F90DF91CF911F910F91FF90EF9051
:10513000DF90CF90089589E795E00E94F313F894EB
:10514000A89584B7877F84BFE0E6F0E0808188611E
:1051500080831082789460E470E080E096E00E94A2
:10516000591360E470E080E496E00C9459131092B7
:1051700086041092850488EE93E0A0E0B0E080936E
:10518000870490938804A0938904B0938A0487E2EB
:1051900092E090938404809383048FEF9FEF909329
:1051A000900480938F04109280068091810680780D
:1051B00080628F7780938106109282061092830618
:1051C000109284061092850680E89EEEA6E3B0E079
:1051D0008093860690938706A0938806B0938906ED
:1051E00010929206109293061092D6041092D50453
:1051F00089E392E09093D4048093D3048091EA05EC
:10520000811113C01092E5051092E4058CEC94E036
:105210009093E7058093E6058FE290E09093E9058F
:105220008093E80581E08093EA050E94E714FC0181
:10523000A385B485109729F484EE95E0948783873D
:105240000BC08D919C911197009711F0DC01F9CF63
:1052500084EE95E08D939C93258536858091E805B5
:105260009091E905820F931F968785871092DF043E
:105270001092E1041092E0041092E3041092E20410
:105280008091F805811113C01092F3051092F20578
:105290008BEF94E09093F5058093F4058CE390E018
:1052A0009093F7058093F60581E08093F8050E94BE
:1052B000E714FC01A385B485109729F482EF95E0EB
:1052C000948783870BC08D919C911197009711F063
:1052D000DC01F9CF82EF95E08D939C93258536858F
:1052E0008091F6059091F705820F931F9687858729
:1052F00025E030E040E050E065E08BE695E00E947C
:10530000D80325E030E040E050E06DE08DE595E029
:105310000E94D80325E030E040E050E06FE18FE4E8
:1053200095E00E94D80325E030E040E050E06AE0DC
:1053300081E495E00E94D80325E030E040E050E0B1
:1053400067E083E395E00E94D80325E030E040E089
:1053500050E069E085E295E00E94D80325E030E066
:1053600040E050E064E087E195E00E94D80325E04A
:1053700030E040E050E06EE189E095E00E94D80323
:1053800025E030E040E050E06CE08BEF94E00E94DC
:10539000D80325E030E040E050E066E08DEE94E098
:1053A0000E94D8038DE592E090937A058093790569
:1053B00089E795E00C94050F8F929F92AF92BF9270
:1053C000CF92DF92EF92FF92CF93DF93EC0168814F
:1053D00079818A819B81611571058105910521F48F
:1053E00064E279ED8BE597E02DE133EF41E050E0A9
:1053F0000E944E2A49015A019B01AC01A7EAB1E47F
:105400000E946D2A6B017C01ACEEB4EFA501940102
:105410000E947B2ADC01CB018C0D9D1DAE1DBF1DA2
:10542000B7FF03C00197A109B04888839983AA8375
:10543000BB83BC01CD019F77DF91CF91FF90EF90AF
:10544000DF90CF90BF90AF909F908F9008950E9473
:10545000DC29089583E191E00E94DC29089560939E
:105460001301709314018093150190931601089510
:10547000F999FECF92BD81BDF89A992780B508951C
:10548000262FF999FECF1FBA92BD81BD20BD0FB660
:10549000F894FA9AF99A0FBE01960895052E97FB93
:1054A0001EF400940E94652A57FD07D00E94802AAE
:1054B00007FC03D04EF40C94652A50954095309526
:1054C00021953F4F4F4F5F4F089590958095709570
:1054D00061957F4F8F4F9F4F08950E94A22AA59FED
:1054E000900DB49F900DA49F800D911D11240895DF
:1054F000B7FF0C946D2A0E946D2A821B930B0895AE
:10550000A1E21A2EAA1BBB1BFD010DC0AA1FBB1FC7
:10551000EE1FFF1FA217B307E407F50720F0A21B39
:10552000B30BE40BF50B661F771F881F991F1A94A6
:1055300069F760957095809590959B01AC01BD01D0
:10554000CF010895A29FB001B39FC001A39F700D2A
:10555000811D1124911DB29F700D811D1124911D7B
:10556000089597FB072E16F4009407D077FD09D015
:105570000E94122B07FC05D03EF4909581959F4F19
:105580000895709561957F4F0895EE0FFF1F059068
:10559000F491E02D099469279627692778278727B2
:1055A000782708950F93083090F0982F872F762F43
:1055B000652F542F432F322F22270850F4CF220F6C
:1055C000331F441F551F661F771F881F991F0A9599
:1055D000B2F70F91089597FB10F8169400080F93F7
:1055E000083098F00850232F342F452F562F672F5F
:1055F000782F892F902DF4CF0594979587957795DF
:10560000679557954795379527950A95AAF70F916E
:1056100008952A0D3B1D4C1D5D1D6E1D7F1D801FB5
:10562000911F0895AA1BBB1B51E107C0AA1FBB1FF6
:10563000A617B70710F0A61BB70B881F991F5A951E
:10564000A9F780959095BC01CD010895CF93DF9384
:105650008230910510F482E090E0E0919606F0919E
:10566000970620E030E0C0E0D0E0309711F14081B3
:10567000518148175907C0F04817590761F48281D2
:105680009381209719F09B838A832BC09093970670
:105690008093960626C02115310519F0421753074D
:1056A00018F49A01BE01DF01EF010280F381E02DC1
:1056B000DCCF2115310509F1281B390B24303105C8
:1056C00090F412968D919C9113976115710521F0BC
:1056D000FB019383828304C0909397068093960680
:1056E000FD01329644C0FD01E20FF31F81939193B7
:1056F000225031092D933C933AC020919406309169
:105700009506232B41F42091190130911A01309311
:1057100095062093940620911701309118012115C8
:10572000310541F42DB73EB740911B0150911C014A
:10573000241B350BE0919406F0919506E217F307D0
:10574000A0F42E1B3F0B2817390778F0AC014E5FF1
:105750005F4F2417350748F04E0F5F1F5093950693
:10576000409394068193919302C0E0E0F0E0CF0172
:10577000DF91CF9108950F931F93CF93DF930097FD
:1057800009F48CC0FC0132971382128200919606B4
:10579000109197060115110581F420813181820F46
:1057A000931F20919406309195062817390779F5B3
:1057B000F0939506E093940671C0D80140E050E064
:1057C000AE17BF0750F412962D913C911397AD017F
:1057D0002115310509F1D901F3CF9D01DA01338398
:1057E000228360817181860F971F8217930769F466
:1057F000EC0128813981260F371F2E5F3F4F3183FF
:1058000020838A819B8193838283452B29F4F093A3
:105810009706E093960642C01396FC93EE93129778
:10582000ED01499159919E01240F351FE217F307AD
:1058300071F480819181840F951F029611969C933B
:105840008E938281938113969C938E931297E0E0BE
:10585000F0E0D80112968D919C911397009719F062
:10586000F8018C01F6CF8D919C9198012E5F3F4FEE
:10587000820F931F209194063091950628173907BF
:1058800069F4309729F4109297061092960602C098
:10589000138212821093950600939406DF91CF91A4
:1058A0001F910F91089581E090E0F8940C94752C6D
:1058B000FB01DC0104C08D910190801921F441505D
:1058C0005040C8F7881B990B0895FB01DC0102C00A
:1058D00001900D9241505040D8F70895DC0101C06D
:1058E0006D9341505040E0F7089512E0CDE9D2E0C9
:1058F00004C0FE010E94C52A2196CE39D107C9F7FE
:04590000F894FFCF49
:1059040000C18081000000FFFFFFFF00E1000000F4
:1059140000000001000000000098068000313233CE
:10592400343536373839303132333435363738391F
:10593400303132333435363738393031323738391B
:105944003235363833383436333437393835303203
:1059540033343235373938343335373938323334F0
:1059640035333438373935363732393733363237D9
:10597400353834363237343833393239300031320D
:1059840033343536373839303132333435363738C5
:1059940039303132333435363738393031323630C4
:1059A40033343136363330383535333231373030BD
:1059B40037343631373336333231353936343132A0
:1059C40033343536005468697353706163654973C1
:1059D400426C616E6B54686973537061636549739B
:1059E400426C616E6B53696E64656E4C6967687472
:1059F40067756E33363432393437333532343338AD
:105A0400393448617665414E6963654461790000C3
:105A1400000000C8022703000000005F0FC81188BF
:105A240011860F000000000C17C3182D172217321F
:105A3400174E176C17000000001816E1165C0F5B78
:105A44000F00000000000000004C174C174C174CCE
:105A5400174C174C174C174C1700000000F313FD9C
:105A640013580F550F050FA90F1710E2135C11639C
:105A740013596573496D53696E64656E4C69676843
:105A84007467756E000D0A0066616C73007472753C
:025A94006500AB
:2070000055C000006EC000006CC000006AC0000068C0000066C0000064C0000062C0000043
:2070200060C000005EC00000F2C400005AC0000058C0000056C0000054C0000052C00000EE
